{"abi":[{"type":"function","name":"main","inputs":[{"name":"unverifiedEmail","type":"tuple","internalType":"struct UnverifiedEmail","components":[{"name":"email","type":"string","internalType":"string"},{"name":"dnsRecord","type":"tuple","internalType":"struct DnsRecord","components":[{"name":"name","type":"string","internalType":"string"},{"name":"recordType","type":"uint8","internalType":"uint8"},{"name":"data","type":"string","internalType":"string"},{"name":"ttl","type":"uint64","internalType":"uint64"}]},{"name":"verificationData","type":"tuple","internalType":"struct VerificationData","components":[{"name":"validUntil","type":"uint64","internalType":"uint64"},{"name":"signature","type":"bytes","internalType":"bytes"},{"name":"pubKey","type":"bytes","internalType":"bytes"}]}]}],"outputs":[{"name":"","type":"tuple","internalType":"struct Proof","components":[{"name":"seal","type":"tuple","internalType":"struct Seal","components":[{"name":"verifierSelector","type":"bytes4","internalType":"bytes4"},{"name":"seal","type":"bytes32[8]","internalType":"bytes32[8]"},{"name":"mode","type":"uint8","internalType":"enum ProofMode"}]},{"name":"callGuestId","type":"bytes32","internalType":"bytes32"},{"name":"length","type":"uint256","internalType":"uint256"},{"name":"callAssumptions","type":"tuple","internalType":"struct CallAssumptions","components":[{"name":"proverContractAddress","type":"address","internalType":"address"},{"name":"functionSelector","type":"bytes4","internalType":"bytes4"},{"name":"settleChainId","type":"uint256","internalType":"uint256"},{"name":"settleBlockNumber","type":"uint256","internalType":"uint256"},{"name":"settleBlockHash","type":"bytes32","internalType":"bytes32"}]}]},{"name":"","type":"bytes32","internalType":"bytes32"},{"name":"","type":"address","internalType":"address"},{"name":"","type":"string","internalType":"string"}],"stateMutability":"view"},{"type":"function","name":"proof","inputs":[],"outputs":[{"name":"","type":"tuple","internalType":"struct Proof","components":[{"name":"seal","type":"tuple","internalType":"struct Seal","components":[{"name":"verifierSelector","type":"bytes4","internalType":"bytes4"},{"name":"seal","type":"bytes32[8]","internalType":"bytes32[8]"},{"name":"mode","type":"uint8","internalType":"enum ProofMode"}]},{"name":"callGuestId","type":"bytes32","internalType":"bytes32"},{"name":"length","type":"uint256","internalType":"uint256"},{"name":"callAssumptions","type":"tuple","internalType":"struct CallAssumptions","components":[{"name":"proverContractAddress","type":"address","internalType":"address"},{"name":"functionSelector","type":"bytes4","internalType":"bytes4"},{"name":"settleChainId","type":"uint256","internalType":"uint256"},{"name":"settleBlockNumber","type":"uint256","internalType":"uint256"},{"name":"settleBlockHash","type":"bytes32","internalType":"bytes32"}]}]}],"stateMutability":"pure"},{"type":"function","name":"setBlock","inputs":[{"name":"blockNo","type":"uint256","internalType":"uint256"}],"outputs":[],"stateMutability":"nonpayable"},{"type":"function","name":"setChain","inputs":[{"name":"chainId","type":"uint256","internalType":"uint256"},{"name":"blockNo","type":"uint256","internalType":"uint256"}],"outputs":[],"stateMutability":"nonpayable"},{"type":"function","name":"stringToAddress","inputs":[{"name":"str","type":"string","internalType":"string"}],"outputs":[{"name":"","type":"address","internalType":"address"}],"stateMutability":"pure"},{"type":"error","name":"FailedInnerCall","inputs":[]}],"bytecode":{"object":"0x6080604052348015600e575f5ffd5b5061280f8061001c5f395ff3fe608060405234801561000f575f5ffd5b5060043610610055575f3560e01c806315706fdf1461005957806387cea3ae14610089578063ac6981e5146100a5578063faf924cf146100d8578063ffbc5638146100f6575b5f5ffd5b610073600480360381019061006e91906111c3565b610112565b6040516100809190611249565b60405180910390f35b6100a3600480360381019061009e9190611295565b6102b4565b005b6100bf60048036038101906100ba91906112e2565b610391565b6040516100cf9493929190611610565b60405180910390f35b6100e06105a8565b6040516100ed919061165e565b60405180910390f35b610110600480360381019061010b9190611678565b6105bd565b005b5f5f829050602a81511461015b576040517f08c379a000000000000000000000000000000000000000000000000000000000815260040161015290611700565b60405180910390fd5b5f601467ffffffffffffffff8111156101775761017661109f565b5b6040519080825280601f01601f1916602001820160405280156101a95781602001600182028036833780820191505090505b5090505f5f90505b601481101561029d576101f8836002836101cb919061174b565b60036101d7919061178c565b815181106101e8576101e76117bf565b5b602001015160f81c60f81b61069d565b60106102388560028561020b919061174b565b6002610217919061178c565b81518110610228576102276117bf565b5b602001015160f81c60f81b61069d565b61024291906117f8565b61024c9190611834565b60f81b828281518110610262576102616117bf565b5b60200101907effffffffffffffffffffffffffffffffffffffffffffffffffffffffffffff191690815f1a90535080806001019150506101b1565b50806102a8906118cc565b60601c92505050919050565b7f2ae215ce9fde588adfdea92976dc9aa45aa006a0f63942d8f9f21bd4537972a35f1c73ffffffffffffffffffffffffffffffffffffffff166387cea3ae826040518263ffffffff1660e01b815260040161030f9190611941565b6020604051808303815f875af115801561032b573d5f5f3e3d5ffd5b505050506040513d601f19601f8201168201806040525081019061034f919061198f565b61038e576040517f08c379a000000000000000000000000000000000000000000000000000000000815260040161038590611a04565b60405180910390fd5b50565b610399610f44565b5f5f60605f6103b0866103ab90611d2a565b6108d7565b90505f6103e260405180606001604052806034815260200161277f603491398360400151610c2c90919063ffffffff16565b90505f815111610427576040517f08c379a000000000000000000000000000000000000000000000000000000000815260040161041e90611d86565b60405180910390fd5b5f61044c8260018151811061043f5761043e6117bf565b5b6020026020010151610112565b90505f61047d6040518060600160405280602781526020016127b360279139855f0151610c2c90919063ffffffff16565b90506104c1845f01516040518060400160405280601481526020017f626f7267657369726f7340676d61696c2e636f6d000000000000000000000000815250610d13565b610500576040517f08c379a00000000000000000000000000000000000000000000000000000000081526004016104f790611dee565b60405180910390fd5b6105086105a8565b6002855f015160405160200161051e9190611e46565b60405160208183030381529060405260405161053a9190611e96565b602060405180830381855afa158015610555573d5f5f3e3d5ffd5b5050506040513d601f19601f820116820180604052508101906105789190611ed6565b838360018151811061058d5761058c6117bf565b5b60200260200101519750975097509750505050509193509193565b6105b0610f44565b6105b8610d2d565b905090565b7f2ae215ce9fde588adfdea92976dc9aa45aa006a0f63942d8f9f21bd4537972a35f1c73ffffffffffffffffffffffffffffffffffffffff1663ffbc563883836040518363ffffffff1660e01b815260040161061a929190611f01565b6020604051808303815f875af1158015610636573d5f5f3e3d5ffd5b505050506040513d601f19601f8201168201806040525081019061065a919061198f565b610699576040517f08c379a000000000000000000000000000000000000000000000000000000000815260040161069090611a04565b60405180910390fd5b5050565b5f5f8260f81c90507f300000000000000000000000000000000000000000000000000000000000000060f81c60ff168160ff161015801561070757507f390000000000000000000000000000000000000000000000000000000000000060f81c60ff168160ff1611155b15610743577f300000000000000000000000000000000000000000000000000000000000000060f81c8161073b9190611f28565b9150506108d2565b7f610000000000000000000000000000000000000000000000000000000000000060f81c60ff168160ff16101580156107a557507f660000000000000000000000000000000000000000000000000000000000000060f81c60ff168160ff1611155b156107ed577f610000000000000000000000000000000000000000000000000000000000000060f81c81600a6107db9190611834565b6107e59190611f28565b9150506108d2565b7f410000000000000000000000000000000000000000000000000000000000000060f81c60ff168160ff161015801561084f57507f460000000000000000000000000000000000000000000000000000000000000060f81c60ff168160ff1611155b15610897577f410000000000000000000000000000000000000000000000000000000000000060f81c81600a6108859190611834565b61088f9190611f28565b9150506108d2565b6040517f08c379a00000000000000000000000000000000000000000000000000000000081526004016108c990611fa6565b60405180910390fd5b919050565b6108df610f76565b4282604001515f015167ffffffffffffffff1611610932576040517f08c379a000000000000000000000000000000000000000000000000000000000815260040161092990612034565b60405180910390fd5b61093a610d44565b156109b7577fc16646301c7615357b8f8ee125956b0e5fbf972fa2a0c26feb1f1ae75d04103f5f1b82604001516040015180519060200120146109b2576040517f08c379a00000000000000000000000000000000000000000000000000000000081526004016109a99061209c565b60405180910390fd5b610b57565b6109bf610d61565b15610a8f576109cc610dc9565b73ffffffffffffffffffffffffffffffffffffffff166381e4c9a38360400151604001516040518263ffffffff1660e01b8152600401610a0c9190612102565b602060405180830381865afa158015610a27573d5f5f3e3d5ffd5b505050506040513d601f19601f82011682018060405250810190610a4b919061198f565b610a8a576040517f08c379a0000000000000000000000000000000000000000000000000000000008152600401610a819061216c565b60405180910390fd5b610b56565b610a97610de4565b73ffffffffffffffffffffffffffffffffffffffff166381e4c9a38360400151604001516040518263ffffffff1660e01b8152600401610ad79190612102565b602060405180830381865afa158015610af2573d5f5f3e3d5ffd5b505050506040513d601f19601f82011682018060405250810190610b16919061198f565b610b55576040517f08c379a0000000000000000000000000000000000000000000000000000000008152600401610b4c9061216c565b60405180910390fd5b5b5b5f5f600173f4e4fdca9d5d55e64525e314391996a15f7ec600610b7a919061218a565b73ffffffffffffffffffffffffffffffffffffffff1684604051602001610ba19190612395565b604051602081830303815290604052604051610bbd9190611e96565b5f60405180830381855afa9150503d805f8114610bf5576040519150601f19603f3d011682016040523d82523d5f602084013e610bfa565b606091505b5091509150610c098282610dff565b505f81806020019051810190610c1f9190612508565b9050809350505050919050565b60605f5f601173f4e4fdca9d5d55e64525e314391996a15f7ec600610c51919061218a565b73ffffffffffffffffffffffffffffffffffffffff16604051806040016040528087815260200186815250604051602001610c8c91906125fe565b604051602081830303815290604052604051610ca89190611e96565b5f60405180830381855afa9150503d805f8114610ce0576040519150601f19603f3d011682016040523d82523d5f602084013e610ce5565b606091505b5091509150610cf48282610dff565b5080806020019051810190610d099190612700565b9250505092915050565b5f8180519060200120838051906020012014905092915050565b610d35610f44565b610d3d610f44565b8091505090565b5f610d4d610e23565b80610d5c5750610d5b610e3b565b5b905090565b5f6001461480610d715750600a46145b80610d7c5750608946145b80610d88575061014446145b80610d9457506101e046145b80610da0575061210546145b80610dac575061a4b146145b80610db8575061a4ba46145b80610dc4575061e70846145b905090565b5f73565dca92902ea0ca597b5e62df0b47886b6b7d4d905090565b5f73c4e4dc291a5c4debe9ff5a3372f3fdd2e42bac86905090565b606082610e1457610e0f82610f00565b610e1c565b819050610e1d565b5b92915050565b5f617a69461480610e3657506204991946145b905090565b5f5f5f601e73f4e4fdca9d5d55e64525e314391996a15f7ec600610e5f919061218a565b73ffffffffffffffffffffffffffffffffffffffff16604051610e819061276a565b5f60405180830381855afa9150503d805f8114610eb9576040519150601f19603f3d011682016040523d82523d5f602084013e610ebe565b606091505b5091509150811580610ed057505f8151145b15610edf575f92505050610efd565b5f81806020019051810190610ef4919061198f565b90508093505050505b90565b5f81511115610f125780518082602001fd5b6040517f1425ea4200000000000000000000000000000000000000000000000000000000815260040160405180910390fd5b6040518060800160405280610f57610f9e565b81526020015f81526020015f8152602001610f70610ff4565b81525090565b6040518060800160405280606081526020016060815260200160608152602001606081525090565b60405180606001604052805f7bffffffffffffffffffffffffffffffffffffffffffffffffffffffff19168152602001610fd6611053565b81526020015f6001811115610fee57610fed611411565b5b81525090565b6040518060a001604052805f73ffffffffffffffffffffffffffffffffffffffff1681526020015f7bffffffffffffffffffffffffffffffffffffffffffffffffffffffff191681526020015f81526020015f81526020015f81525090565b604051806101000160405280600890602082028036833780820191505090505090565b5f604051905090565b5f5ffd5b5f5ffd5b5f5ffd5b5f5ffd5b5f601f19601f8301169050919050565b7f4e487b71000000000000000000000000000000000000000000000000000000005f52604160045260245ffd5b6110d58261108f565b810181811067ffffffffffffffff821117156110f4576110f361109f565b5b80604052505050565b5f611106611076565b905061111282826110cc565b919050565b5f67ffffffffffffffff8211156111315761113061109f565b5b61113a8261108f565b9050602081019050919050565b828183375f83830152505050565b5f61116761116284611117565b6110fd565b9050828152602081018484840111156111835761118261108b565b5b61118e848285611147565b509392505050565b5f82601f8301126111aa576111a9611087565b5b81356111ba848260208601611155565b91505092915050565b5f602082840312156111d8576111d761107f565b5b5f82013567ffffffffffffffff8111156111f5576111f4611083565b5b61120184828501611196565b91505092915050565b5f73ffffffffffffffffffffffffffffffffffffffff82169050919050565b5f6112338261120a565b9050919050565b61124381611229565b82525050565b5f60208201905061125c5f83018461123a565b92915050565b5f819050919050565b61127481611262565b811461127e575f5ffd5b50565b5f8135905061128f8161126b565b92915050565b5f602082840312156112aa576112a961107f565b5b5f6112b784828501611281565b91505092915050565b5f5ffd5b5f606082840312156112d9576112d86112c0565b5b81905092915050565b5f602082840312156112f7576112f661107f565b5b5f82013567ffffffffffffffff81111561131457611313611083565b5b611320848285016112c4565b91505092915050565b5f7fffffffff0000000000000000000000000000000000000000000000000000000082169050919050565b61135d81611329565b82525050565b5f60089050919050565b5f81905092915050565b5f819050919050565b5f819050919050565b61139281611380565b82525050565b5f6113a38383611389565b60208301905092915050565b5f602082019050919050565b6113c481611363565b6113ce818461136d565b92506113d982611377565b805f5b838110156114095781516113f08782611398565b96506113fb836113af565b9250506001810190506113dc565b505050505050565b7f4e487b71000000000000000000000000000000000000000000000000000000005f52602160045260245ffd5b6002811061144f5761144e611411565b5b50565b5f81905061145f8261143e565b919050565b5f61146e82611452565b9050919050565b61147e81611464565b82525050565b61014082015f8201516114995f850182611354565b5060208201516114ac60208501826113bb565b5060408201516114c0610120850182611475565b50505050565b6114cf81611262565b82525050565b6114de81611229565b82525050565b60a082015f8201516114f85f8501826114d5565b50602082015161150b6020850182611354565b50604082015161151e60408501826114c6565b50606082015161153160608501826114c6565b5060808201516115446080850182611389565b50505050565b61022082015f82015161155f5f850182611484565b506020820151611573610140850182611389565b5060408201516115876101608501826114c6565b50606082015161159b6101808501826114e4565b50505050565b6115aa81611380565b82525050565b5f81519050919050565b5f82825260208201905092915050565b8281835e5f83830152505050565b5f6115e2826115b0565b6115ec81856115ba565b93506115fc8185602086016115ca565b6116058161108f565b840191505092915050565b5f610280820190506116245f83018761154a565b6116326102208301866115a1565b61164061024083018561123a565b81810361026083015261165381846115d8565b905095945050505050565b5f610220820190506116725f83018461154a565b92915050565b5f5f6040838503121561168e5761168d61107f565b5b5f61169b85828601611281565b92505060206116ac85828601611281565b9150509250929050565b7f496e76616c69642061646472657373206c656e677468000000000000000000005f82015250565b5f6116ea6016836115ba565b91506116f5826116b6565b602082019050919050565b5f6020820190508181035f830152611717816116de565b9050919050565b7f4e487b71000000000000000000000000000000000000000000000000000000005f52601160045260245ffd5b5f61175582611262565b915061176083611262565b925082820261176e81611262565b915082820484148315176117855761178461171e565b5b5092915050565b5f61179682611262565b91506117a183611262565b92508282019050808211156117b9576117b861171e565b5b92915050565b7f4e487b71000000000000000000000000000000000000000000000000000000005f52603260045260245ffd5b5f60ff82169050919050565b5f611802826117ec565b915061180d836117ec565b925082820261181b816117ec565b915080821461182d5761182c61171e565b5b5092915050565b5f61183e826117ec565b9150611849836117ec565b9250828201905060ff8111156118625761186161171e565b5b92915050565b5f81519050919050565b5f819050602082019050919050565b5f7fffffffffffffffffffffffffffffffffffffffff00000000000000000000000082169050919050565b5f6118b78251611881565b80915050919050565b5f82821b905092915050565b5f6118d682611868565b826118e084611872565b90506118eb816118ac565b9250601482101561192b576119267fffffffffffffffffffffffffffffffffffffffff000000000000000000000000836014036008026118c0565b831692505b5050919050565b61193b81611262565b82525050565b5f6020820190506119545f830184611932565b92915050565b5f8115159050919050565b61196e8161195a565b8114611978575f5ffd5b50565b5f8151905061198981611965565b92915050565b5f602082840312156119a4576119a361107f565b5b5f6119b18482850161197b565b91505092915050565b7f4661696c6564206368656174636f646520696e766f636174696f6e00000000005f82015250565b5f6119ee601b836115ba565b91506119f9826119ba565b602082019050919050565b5f6020820190508181035f830152611a1b816119e2565b9050919050565b5f5ffd5b5f5ffd5b611a33816117ec565b8114611a3d575f5ffd5b50565b5f81359050611a4e81611a2a565b92915050565b5f67ffffffffffffffff82169050919050565b611a7081611a54565b8114611a7a575f5ffd5b50565b5f81359050611a8b81611a67565b92915050565b5f60808284031215611aa657611aa5611a22565b5b611ab060806110fd565b90505f82013567ffffffffffffffff811115611acf57611ace611a26565b5b611adb84828501611196565b5f830152506020611aee84828501611a40565b602083015250604082013567ffffffffffffffff811115611b1257611b11611a26565b5b611b1e84828501611196565b6040830152506060611b3284828501611a7d565b60608301525092915050565b5f67ffffffffffffffff821115611b5857611b5761109f565b5b611b618261108f565b9050602081019050919050565b5f611b80611b7b84611b3e565b6110fd565b905082815260208101848484011115611b9c57611b9b61108b565b5b611ba7848285611147565b509392505050565b5f82601f830112611bc357611bc2611087565b5b8135611bd3848260208601611b6e565b91505092915050565b5f60608284031215611bf157611bf0611a22565b5b611bfb60606110fd565b90505f611c0a84828501611a7d565b5f83015250602082013567ffffffffffffffff811115611c2d57611c2c611a26565b5b611c3984828501611baf565b602083015250604082013567ffffffffffffffff811115611c5d57611c5c611a26565b5b611c6984828501611baf565b60408301525092915050565b5f60608284031215611c8a57611c89611a22565b5b611c9460606110fd565b90505f82013567ffffffffffffffff811115611cb357611cb2611a26565b5b611cbf84828501611196565b5f83015250602082013567ffffffffffffffff811115611ce257611ce1611a26565b5b611cee84828501611a91565b602083015250604082013567ffffffffffffffff811115611d1257611d11611a26565b5b611d1e84828501611bdc565b60408301525092915050565b5f611d353683611c75565b9050919050565b7f6e6f2077616c6c6574206164647265737320696e207375626a656374000000005f82015250565b5f611d70601c836115ba565b9150611d7b82611d3c565b602082019050919050565b5f6020820190508181035f830152611d9d81611d64565b9050919050565b7f696e76616c696420656d61696c206164647265737300000000000000000000005f82015250565b5f611dd86015836115ba565b9150611de382611da4565b602082019050919050565b5f6020820190508181035f830152611e0581611dcc565b9050919050565b5f81905092915050565b5f611e20826115b0565b611e2a8185611e0c565b9350611e3a8185602086016115ca565b80840191505092915050565b5f611e518284611e16565b915081905092915050565b5f81905092915050565b5f611e7082611868565b611e7a8185611e5c565b9350611e8a8185602086016115ca565b80840191505092915050565b5f611ea18284611e66565b915081905092915050565b611eb581611380565b8114611ebf575f5ffd5b50565b5f81519050611ed081611eac565b92915050565b5f60208284031215611eeb57611eea61107f565b5b5f611ef884828501611ec2565b91505092915050565b5f604082019050611f145f830185611932565b611f216020830184611932565b9392505050565b5f611f32826117ec565b9150611f3d836117ec565b9250828203905060ff811115611f5657611f5561171e565b5b92915050565b7f496e76616c6964206865782063686172616374657200000000000000000000005f82015250565b5f611f906015836115ba565b9150611f9b82611f5c565b602082019050919050565b5f6020820190508181035f830152611fbd81611f84565b9050919050565b7f456d61696c50726f6f663a206578706972656420444e532076657269666963615f8201527f74696f6e00000000000000000000000000000000000000000000000000000000602082015250565b5f61201e6024836115ba565b915061202982611fc4565b604082019050919050565b5f6020820190508181035f83015261204b81612012565b9050919050565b7f4e6f7420612076616c69642056444e532068617264636f646564206b657900005f82015250565b5f612086601e836115ba565b915061209182612052565b602082019050919050565b5f6020820190508181035f8301526120b38161207a565b9050919050565b5f82825260208201905092915050565b5f6120d482611868565b6120de81856120ba565b93506120ee8185602086016115ca565b6120f78161108f565b840191505092915050565b5f6020820190508181035f83015261211a81846120ca565b905092915050565b7f4e6f7420612076616c69642056444e53207075626c6963206b657900000000005f82015250565b5f612156601b836115ba565b915061216182612122565b602082019050919050565b5f6020820190508181035f8301526121838161214a565b9050919050565b5f6121948261120a565b915061219f8361120a565b9250828201905073ffffffffffffffffffffffffffffffffffffffff8111156121cb576121ca61171e565b5b92915050565b5f82825260208201905092915050565b5f6121eb826115b0565b6121f581856121d1565b93506122058185602086016115ca565b61220e8161108f565b840191505092915050565b612222816117ec565b82525050565b61223181611a54565b82525050565b5f608083015f8301518482035f86015261225182826121e1565b91505060208301516122666020860182612219565b506040830151848203604086015261227e82826121e1565b91505060608301516122936060860182612228565b508091505092915050565b5f82825260208201905092915050565b5f6122b882611868565b6122c2818561229e565b93506122d28185602086016115ca565b6122db8161108f565b840191505092915050565b5f606083015f8301516122fb5f860182612228565b506020830151848203602086015261231382826122ae565b9150506040830151848203604086015261232d82826122ae565b9150508091505092915050565b5f606083015f8301518482035f86015261235482826121e1565b9150506020830151848203602086015261236e8282612237565b9150506040830151848203604086015261238882826122e6565b9150508091505092915050565b5f6020820190508181035f8301526123ad818461233a565b905092915050565b5f6123c76123c284611117565b6110fd565b9050828152602081018484840111156123e3576123e261108b565b5b6123ee8482856115ca565b509392505050565b5f82601f83011261240a57612409611087565b5b815161241a8482602086016123b5565b91505092915050565b5f6080828403121561243857612437611a22565b5b61244260806110fd565b90505f82015167ffffffffffffffff81111561246157612460611a26565b5b61246d848285016123f6565b5f83015250602082015167ffffffffffffffff8111156124905761248f611a26565b5b61249c848285016123f6565b602083015250604082015167ffffffffffffffff8111156124c0576124bf611a26565b5b6124cc848285016123f6565b604083015250606082015167ffffffffffffffff8111156124f0576124ef611a26565b5b6124fc848285016123f6565b60608301525092915050565b5f6020828403121561251d5761251c61107f565b5b5f82015167ffffffffffffffff81111561253a57612539611083565b5b61254684828501612423565b91505092915050565b5f60029050919050565b5f81905092915050565b5f819050919050565b5f61257783836121e1565b905092915050565b5f602082019050919050565b5f6125958261254f565b61259f8185612559565b9350836020820285016125b185612563565b805f5b858110156125ec57848403895281516125cd858261256c565b94506125d88361257f565b925060208a019950506001810190506125b4565b50829750879550505050505092915050565b5f6020820190508181035f830152612616818461258b565b905092915050565b5f67ffffffffffffffff8211156126385761263761109f565b5b602082029050602081019050919050565b5f5ffd5b5f61265f61265a8461261e565b6110fd565b9050808382526020820190506020840283018581111561268257612681612649565b5b835b818110156126c957805167ffffffffffffffff8111156126a7576126a6611087565b5b8086016126b489826123f6565b85526020850194505050602081019050612684565b5050509392505050565b5f82601f8301126126e7576126e6611087565b5b81516126f784826020860161264d565b91505092915050565b5f602082840312156127155761271461107f565b5b5f82015167ffffffffffffffff81111561273257612731611083565b5b61273e848285016126d3565b91505092915050565b50565b5f6127555f83611e5c565b915061276082612747565b5f82019050919050565b5f6127748261274a565b915081905091905056fe5e4d696e74206d7920646f6d61696e204e465420617420616464726573733a202830785b612d66412d46302d395d7b34307d29245e5b5c772e2d5d2b40285b612d7a412d5a5c642e2d5d2b5c2e5b612d7a412d5a5d7b322c7d2924a2646970667358221220a31826a1bd904884f53de73cfb1dbb335058c3fc6b5127c9a6e858a63621f1c364736f6c634300081e0033","linkReferences":{}},"methodIdentifiers":{"main((string,(string,uint8,string,uint64),(uint64,bytes,bytes)))":"ac6981e5","proof()":"faf924cf","setBlock(uint256)":"87cea3ae","setChain(uint256,uint256)":"ffbc5638","stringToAddress(string)":"15706fdf"},"id":73}