{"abi":[{"type":"constructor","inputs":[{"name":"_prover","type":"address","internalType":"address"}],"stateMutability":"nonpayable"},{"type":"function","name":"_setTestVerifier","inputs":[{"name":"newVerifier","type":"address","internalType":"contract IProofVerifier"}],"outputs":[],"stateMutability":"nonpayable"},{"type":"function","name":"prover","inputs":[],"outputs":[{"name":"","type":"address","internalType":"address"}],"stateMutability":"view"},{"type":"function","name":"takenEmailHashes","inputs":[{"name":"","type":"bytes32","internalType":"bytes32"}],"outputs":[{"name":"","type":"bool","internalType":"bool"}],"stateMutability":"view"},{"type":"function","name":"verifier","inputs":[],"outputs":[{"name":"","type":"address","internalType":"contract IProofVerifier"}],"stateMutability":"view"},{"type":"function","name":"verify","inputs":[{"name":"","type":"tuple","internalType":"struct Proof","components":[{"name":"seal","type":"tuple","internalType":"struct Seal","components":[{"name":"verifierSelector","type":"bytes4","internalType":"bytes4"},{"name":"seal","type":"bytes32[8]","internalType":"bytes32[8]"},{"name":"mode","type":"uint8","internalType":"enum ProofMode"}]},{"name":"callGuestId","type":"bytes32","internalType":"bytes32"},{"name":"length","type":"uint256","internalType":"uint256"},{"name":"callAssumptions","type":"tuple","internalType":"struct CallAssumptions","components":[{"name":"proverContractAddress","type":"address","internalType":"address"},{"name":"functionSelector","type":"bytes4","internalType":"bytes4"},{"name":"settleChainId","type":"uint256","internalType":"uint256"},{"name":"settleBlockNumber","type":"uint256","internalType":"uint256"},{"name":"settleBlockHash","type":"bytes32","internalType":"bytes32"}]}]},{"name":"_emailHash","type":"bytes32","internalType":"bytes32"}],"outputs":[{"name":"","type":"bool","internalType":"bool"}],"stateMutability":"nonpayable"},{"type":"error","name":"InvalidChainId","inputs":[]}],"bytecode":{"object":"0x60a060405234801561000f575f80fd5b506040516166d83803806166d883398181016040528101906100319190610559565b61003f6100f760201b60201c565b5f806101000a81548173ffffffffffffffffffffffffffffffffffffffff021916908373ffffffffffffffffffffffffffffffffffffffff1602179055503373ffffffffffffffffffffffffffffffffffffffff1660808173ffffffffffffffffffffffffffffffffffffffff16815250508060015f6101000a81548173ffffffffffffffffffffffffffffffffffffffff021916908373ffffffffffffffffffffffffffffffffffffffff16021790555050610774565b5f61010661029360201b60201c565b15610202575f303060405161011a906104e1565b610125929190610593565b604051809103905ff08015801561013e573d5f803e3d5ffd5b5090508073ffffffffffffffffffffffffffffffffffffffff166384cf84e17fdcb00648ecc90d8bfe92aa8d51061beb0bcb110d274fc4a517e526574233d36b5f1b6040518263ffffffff1660e01b815260040161019c91906105d2565b5f604051808303815f87803b1580156101b3575f80fd5b505af11580156101c5573d5f803e3d5ffd5b50505050806040516101d6906104ee565b6101e09190610646565b604051809103905ff0801580156101f9573d5f803e3d5ffd5b50915050610290565b6102106102bc60201b60201c565b1561022f575f61022461032460201b60201c565b905080915050610290565b61023d61034460201b60201c565b1561025e575f6102516103a860201b60201c565b9250505080915050610290565b6040517f7a47c9a200000000000000000000000000000000000000000000000000000000815260040160405180910390fd5b90565b5f6102a261040460201b60201c565b806102b757506102b661041c60201b60201c565b5b905090565b5f60014614806102cc5750600a46145b806102d75750608946145b806102e3575061014446145b806102ef57506101e046145b806102fb575061210546145b80610307575061a4b146145b80610313575061a4ba46145b8061031f575061e70846145b905090565b5f80735553cf6ce25e3f80fad2866f6230346159ecd89c90508091505090565b5f62aa36a7461480610357575061012c46145b8061036357506112c146145b8061036f575061e70546145b8061037c57506201388246145b80610389575062014a3446145b80610396575062066eee46145b806103a3575062aa37dc46145b905090565b5f805f80739e30dc3e49c4d47f982902710616dcc4b6ff7bf590505f737e231cfc3e3b549633d5ad61c30f07dd4d408ad390505f738972b6ff413ac04e61e19f07d7f3bd980d0cc3219050828282955095509550505050909192565b5f617a6946148061041757506204991946145b905090565b5f805f601e73f4e4fdca9d5d55e64525e314391996a15f7ec600610440919061068c565b73ffffffffffffffffffffffffffffffffffffffff1660405161046290610700565b5f60405180830381855afa9150503d805f811461049a576040519150601f19603f3d011682016040523d82523d5f602084013e61049f565b606091505b50915091508115806104b157505f8151145b156104c0575f925050506104de565b5f818060200190518101906104d59190610749565b90508093505050505b90565b611fd08061204d83390190565b6126bb8061401d83390190565b5f80fd5b5f73ffffffffffffffffffffffffffffffffffffffff82169050919050565b5f610528826104ff565b9050919050565b6105388161051e565b8114610542575f80fd5b50565b5f815190506105538161052f565b92915050565b5f6020828403121561056e5761056d6104fb565b5b5f61057b84828501610545565b91505092915050565b61058d8161051e565b82525050565b5f6040820190506105a65f830185610584565b6105b36020830184610584565b9392505050565b5f819050919050565b6105cc816105ba565b82525050565b5f6020820190506105e55f8301846105c3565b92915050565b5f819050919050565b5f61060e610609610604846104ff565b6105eb565b6104ff565b9050919050565b5f61061f826105f4565b9050919050565b5f61063082610615565b9050919050565b61064081610626565b82525050565b5f6020820190506106595f830184610637565b92915050565b7f4e487b71000000000000000000000000000000000000000000000000000000005f52601160045260245ffd5b5f610696826104ff565b91506106a1836104ff565b9250828201905073ffffffffffffffffffffffffffffffffffffffff8111156106cd576106cc61065f565b5b92915050565b5f81905092915050565b50565b5f6106eb5f836106d3565b91506106f6826106dd565b5f82019050919050565b5f61070a826106e0565b9150819050919050565b5f8115159050919050565b61072881610714565b8114610732575f80fd5b50565b5f815190506107438161071f565b92915050565b5f6020828403121561075e5761075d6104fb565b5b5f61076b84828501610735565b91505092915050565b6080516118c161078c5f395f61017801526118c15ff3fe608060405234801561000f575f80fd5b5060043610610055575f3560e01c80632b7ac3f31461005957806332a8f30f146100775780635889d3ea146100955780639b8b30c8146100c5578063b66327c9146100e1575b5f80fd5b610061610111565b60405161006e9190610b60565b60405180910390f35b61007f610134565b60405161008c9190610b99565b60405180910390f35b6100af60048036038101906100aa9190610bf2565b610159565b6040516100bc9190610c37565b60405180910390f35b6100df60048036038101906100da9190610c8b565b610176565b005b6100fb60048036038101906100f69190610cd9565b610376565b6040516101089190610c37565b60405180910390f35b5f8054906101000a900473ffffffffffffffffffffffffffffffffffffffff1681565b60015f9054906101000a900473ffffffffffffffffffffffffffffffffffffffff1681565b6002602052805f5260405f205f915054906101000a900460ff1681565b7f000000000000000000000000000000000000000000000000000000000000000073ffffffffffffffffffffffffffffffffffffffff163373ffffffffffffffffffffffffffffffffffffffff1614610204576040517f08c379a00000000000000000000000000000000000000000000000000000000081526004016101fb90610d99565b60405180910390fd5b61020c610443565b8061021b575061021a610460565b5b61025a576040517f08c379a000000000000000000000000000000000000000000000000000000000815260040161025190610e27565b60405180910390fd5b5f73ffffffffffffffffffffffffffffffffffffffff168173ffffffffffffffffffffffffffffffffffffffff16633fd66f226040518163ffffffff1660e01b8152600401602060405180830381865afa1580156102ba573d5f803e3d5ffd5b505050506040513d601f19601f820116820180604052508101906102de9190610e80565b73ffffffffffffffffffffffffffffffffffffffff1603610334576040517f08c379a000000000000000000000000000000000000000000000000000000000815260040161032b90610f1b565b60405180910390fd5b805f806101000a81548173ffffffffffffffffffffffffffffffffffffffff021916908373ffffffffffffffffffffffffffffffffffffffff16021790555050565b5f60015f9054906101000a900473ffffffffffffffffffffffffffffffffffffffff1663ac6981e560e01b6103ab82826104c4565b5f151560025f8681526020019081526020015f205f9054906101000a900460ff1615151461040e576040517f08c379a000000000000000000000000000000000000000000000000000000000815260040161040590610f83565b60405180910390fd5b600160025f8681526020019081526020015f205f6101000a81548160ff02191690831515021790555060019250505092915050565b5f61044c610562565b8061045b575061045a61057a565b5b905090565b5f62aa36a7461480610473575061012c46145b8061047f57506112c146145b8061048b575061e70546145b8061049857506201388246145b806104a5575062014a3446145b806104b2575062066eee46145b806104bf575062aa37dc46145b905090565b5f806104ce61063f565b915091505f8054906101000a900473ffffffffffffffffffffffffffffffffffffffff1673ffffffffffffffffffffffffffffffffffffffff1663c4fa74e5838387876040518563ffffffff1660e01b81526004016105309493929190611237565b5f6040518083038186803b158015610546575f80fd5b505afa158015610558573d5f803e3d5ffd5b5050505050505050565b5f617a6946148061057557506204991946145b905090565b5f805f601e73f4e4fdca9d5d55e64525e314391996a15f7ec60061059e91906112ab565b73ffffffffffffffffffffffffffffffffffffffff166040516105c09061131f565b5f60405180830381855afa9150503d805f81146105f8576040519150601f19603f3d011682016040523d82523d5f602084013e6105fd565b606091505b509150915081158061060f57505f8151145b1561061e575f9250505061063c565b5f81806020019051810190610633919061135d565b90508093505050505b90565b6106476109d6565b5f805f36600490809261065c93929190611390565b8101906106699190611712565b90505f602080602080602061067e919061173e565b610688919061173e565b610692919061173e565b61069c919061173e565b602080602061010060206106b0919061173e565b6106ba919061173e565b6106c4919061173e565b6106ce919061173e565b60046106da919061173e565b6106e4919061173e565b90505f60208060208060206106f9919061173e565b610703919061173e565b61070d919061173e565b610717919061173e565b6020806020806020610729919061173e565b610733919061173e565b61073d919061173e565b610747919061173e565b6020806020610100602061075b919061173e565b610765919061173e565b61076f919061173e565b610779919061173e565b610783919061173e565b84604001516107929190611771565b61079c9190611771565b90505f81836107ab919061173e565b90505f8036602080602061010060206107c4919061173e565b6107ce919061173e565b6107d8919061173e565b6107e2919061173e565b60046107ee919061173e565b906020806020806020610801919061173e565b61080b919061173e565b610815919061173e565b61081f919061173e565b60208060206101006020610833919061173e565b61083d919061173e565b610847919061173e565b610851919061173e565b600461085d919061173e565b610867919061173e565b9261087493929190611390565b8080601f0160208091040260200160405190810160405280939291908181526020018383808284375f81840152601f19601f8201169050808301925050505050505090505f8036869085926108cb93929190611390565b8080601f0160208091040260200160405190810160405280939291908181526020018383808284375f81840152601f19601f8201169050808301925050505050505090505f826109196109bf565b60405160200161092991906117a4565b6040516020818303038152906040528360405160200161094b93929190611806565b60405160208183030381529060405290505f60028260405161096d9190611836565b602060405180830381855afa158015610988573d5f803e3d5ffd5b5050506040513d601f19601f820116820180604052508101906109ab9190611860565b905087819950995050505050505050509091565b6109c76109d6565b6109cf6109d6565b8091505090565b60405180608001604052806109e9610a0b565b81526020015f80191681526020015f8152602001610a05610a61565b81525090565b60405180606001604052805f7bffffffffffffffffffffffffffffffffffffffffffffffffffffffff19168152602001610a43610ac3565b81526020015f6001811115610a5b57610a5a611080565b5b81525090565b6040518060a001604052805f73ffffffffffffffffffffffffffffffffffffffff1681526020015f7bffffffffffffffffffffffffffffffffffffffffffffffffffffffff191681526020015f81526020015f81526020015f80191681525090565b604051806101000160405280600890602082028036833780820191505090505090565b5f73ffffffffffffffffffffffffffffffffffffffff82169050919050565b5f819050919050565b5f610b28610b23610b1e84610ae6565b610b05565b610ae6565b9050919050565b5f610b3982610b0e565b9050919050565b5f610b4a82610b2f565b9050919050565b610b5a81610b40565b82525050565b5f602082019050610b735f830184610b51565b92915050565b5f610b8382610ae6565b9050919050565b610b9381610b79565b82525050565b5f602082019050610bac5f830184610b8a565b92915050565b5f604051905090565b5f80fd5b5f819050919050565b610bd181610bbf565b8114610bdb575f80fd5b50565b5f81359050610bec81610bc8565b92915050565b5f60208284031215610c0757610c06610bbb565b5b5f610c1484828501610bde565b91505092915050565b5f8115159050919050565b610c3181610c1d565b82525050565b5f602082019050610c4a5f830184610c28565b92915050565b5f610c5a82610b79565b9050919050565b610c6a81610c50565b8114610c74575f80fd5b50565b5f81359050610c8581610c61565b92915050565b5f60208284031215610ca057610c9f610bbb565b5b5f610cad84828501610c77565b91505092915050565b5f80fd5b5f6102208284031215610cd057610ccf610cb6565b5b81905092915050565b5f806102408385031215610cf057610cef610bbb565b5b5f610cfd85828601610cba565b925050610220610d0f85828601610bde565b9150509250929050565b5f82825260208201905092915050565b7f4f6e6c79206465706c6f7965722063616e206368616e676520766572696669655f8201527f7200000000000000000000000000000000000000000000000000000000000000602082015250565b5f610d83602183610d19565b9150610d8e82610d29565b604082019050919050565b5f6020820190508181035f830152610db081610d77565b9050919050565b7f4368616e67696e6720766572696669657273206973206f6e6c7920616c6c6f775f8201527f6564206f6e206465766e6574206f7220746573746e6574000000000000000000602082015250565b5f610e11603783610d19565b9150610e1c82610db7565b604082019050919050565b5f6020820190508181035f830152610e3e81610e05565b9050919050565b5f610e4f82610b79565b9050919050565b610e5f81610e45565b8114610e69575f80fd5b50565b5f81519050610e7a81610e56565b92915050565b5f60208284031215610e9557610e94610bbb565b5b5f610ea284828501610e6c565b91505092915050565b7f56657269666965722773207265706f7369746f727920616464726573732069735f8201527f206e6f7420736574000000000000000000000000000000000000000000000000602082015250565b5f610f05602883610d19565b9150610f1082610eab565b604082019050919050565b5f6020820190508181035f830152610f3281610ef9565b9050919050565b7f656d61696c2074616b656e0000000000000000000000000000000000000000005f82015250565b5f610f6d600b83610d19565b9150610f7882610f39565b602082019050919050565b5f6020820190508181035f830152610f9a81610f61565b9050919050565b5f7fffffffff0000000000000000000000000000000000000000000000000000000082169050919050565b610fd581610fa1565b82525050565b5f60089050919050565b5f81905092915050565b5f819050919050565b61100181610bbf565b82525050565b5f6110128383610ff8565b60208301905092915050565b5f602082019050919050565b61103381610fdb565b61103d8184610fe5565b925061104882610fef565b805f5b8381101561107857815161105f8782611007565b965061106a8361101e565b92505060018101905061104b565b505050505050565b7f4e487b71000000000000000000000000000000000000000000000000000000005f52602160045260245ffd5b600281106110be576110bd611080565b5b50565b5f8190506110ce826110ad565b919050565b5f6110dd826110c1565b9050919050565b6110ed816110d3565b82525050565b61014082015f8201516111085f850182610fcc565b50602082015161111b602085018261102a565b50604082015161112f6101208501826110e4565b50505050565b5f819050919050565b61114781611135565b82525050565b61115681610b79565b82525050565b60a082015f8201516111705f85018261114d565b5060208201516111836020850182610fcc565b506040820151611196604085018261113e565b5060608201516111a9606085018261113e565b5060808201516111bc6080850182610ff8565b50505050565b61022082015f8201516111d75f8501826110f3565b5060208201516111eb610140850182610ff8565b5060408201516111ff61016085018261113e565b50606082015161121361018085018261115c565b50505050565b61122281610bbf565b82525050565b61123181610fa1565b82525050565b5f6102808201905061124b5f8301876111c2565b611259610220830186611219565b611267610240830185610b8a565b611275610260830184611228565b95945050505050565b7f4e487b71000000000000000000000000000000000000000000000000000000005f52601160045260245ffd5b5f6112b582610ae6565b91506112c083610ae6565b9250828201905073ffffffffffffffffffffffffffffffffffffffff8111156112ec576112eb61127e565b5b92915050565b5f81905092915050565b50565b5f61130a5f836112f2565b9150611315826112fc565b5f82019050919050565b5f611329826112ff565b9150819050919050565b61133c81610c1d565b8114611346575f80fd5b50565b5f8151905061135781611333565b92915050565b5f6020828403121561137257611371610bbb565b5b5f61137f84828501611349565b91505092915050565b5f80fd5b5f80fd5b5f80858511156113a3576113a2611388565b5b838611156113b4576113b361138c565b5b6001850283019150848603905094509492505050565b5f80fd5b5f601f19601f8301169050919050565b7f4e487b71000000000000000000000000000000000000000000000000000000005f52604160045260245ffd5b611414826113ce565b810181811067ffffffffffffffff82111715611433576114326113de565b5b80604052505050565b5f611445610bb2565b9050611451828261140b565b919050565b61145f81610fa1565b8114611469575f80fd5b50565b5f8135905061147a81611456565b92915050565b5f80fd5b5f67ffffffffffffffff82111561149e5761149d6113de565b5b602082029050919050565b5f80fd5b5f6114bf6114ba84611484565b61143c565b905080602084028301858111156114d9576114d86114a9565b5b835b8181101561150257806114ee8882610bde565b8452602084019350506020810190506114db565b5050509392505050565b5f82601f8301126115205761151f611480565b5b600861152d8482856114ad565b91505092915050565b60028110611542575f80fd5b50565b5f8135905061155381611536565b92915050565b5f610140828403121561156f5761156e6113ca565b5b611579606061143c565b90505f6115888482850161146c565b5f83015250602061159b8482850161150c565b6020830152506101206115b084828501611545565b60408301525092915050565b6115c581611135565b81146115cf575f80fd5b50565b5f813590506115e0816115bc565b92915050565b6115ef81610b79565b81146115f9575f80fd5b50565b5f8135905061160a816115e6565b92915050565b5f60a08284031215611625576116246113ca565b5b61162f60a061143c565b90505f61163e848285016115fc565b5f8301525060206116518482850161146c565b6020830152506040611665848285016115d2565b6040830152506060611679848285016115d2565b606083015250608061168d84828501610bde565b60808301525092915050565b5f61022082840312156116af576116ae6113ca565b5b6116b9608061143c565b90505f6116c884828501611559565b5f830152506101406116dc84828501610bde565b6020830152506101606116f1848285016115d2565b60408301525061018061170684828501611610565b60608301525092915050565b5f610220828403121561172857611727610bbb565b5b5f61173584828501611699565b91505092915050565b5f61174882611135565b915061175383611135565b925082820190508082111561176b5761176a61127e565b5b92915050565b5f61177b82611135565b915061178683611135565b925082820390508181111561179e5761179d61127e565b5b92915050565b5f610220820190506117b85f8301846111c2565b92915050565b5f81519050919050565b8281835e5f83830152505050565b5f6117e0826117be565b6117ea81856112f2565b93506117fa8185602086016117c8565b80840191505092915050565b5f61181182866117d6565b915061181d82856117d6565b915061182982846117d6565b9150819050949350505050565b5f61184182846117d6565b915081905092915050565b5f8151905061185a81610bc8565b92915050565b5f6020828403121561187557611874610bbb565b5b5f6118828482850161184c565b9150509291505056fea26469706673582212207ea3f386b43e95c09abfd112628d43ac293e4e44dcdb28a65fd4ea8c4062325a64736f6c634300081a0033608060405234801561000f575f80fd5b50604051611fd0380380611fd083398181016040528101906100319190610342565b6100435f801b8361007c60201b60201c565b506100747fb19546dff01e856fb3f010c267a7b1c60363cf8a4664e21cc89c26224620214e8261007c60201b60201c565b505050610380565b5f8061008e84846100c560201b60201c565b905080156100bb576100b98360015f8781526020019081526020015f206101ba60201b90919060201c565b505b8091505092915050565b5f6100d683836101ed60201b60201c565b6101b05760015f808581526020019081526020015f205f015f8473ffffffffffffffffffffffffffffffffffffffff1673ffffffffffffffffffffffffffffffffffffffff1681526020019081526020015f205f6101000a81548160ff02191690831515021790555061014d61025060201b60201c565b73ffffffffffffffffffffffffffffffffffffffff168273ffffffffffffffffffffffffffffffffffffffff16847f2f8788117e7eff1d82e926ec794901d17c78024a50270940304540a733656f0d60405160405180910390a4600190506101b4565b5f90505b92915050565b5f6101e5835f018373ffffffffffffffffffffffffffffffffffffffff165f1b61025760201b60201c565b905092915050565b5f805f8481526020019081526020015f205f015f8373ffffffffffffffffffffffffffffffffffffffff1673ffffffffffffffffffffffffffffffffffffffff1681526020019081526020015f205f9054906101000a900460ff16905092915050565b5f33905090565b5f61026883836102c460201b60201c565b6102ba57825f0182908060018154018082558091505060019003905f5260205f20015f9091909190915055825f0180549050836001015f8481526020019081526020015f2081905550600190506102be565b5f90505b92915050565b5f80836001015f8481526020019081526020015f20541415905092915050565b5f80fd5b5f73ffffffffffffffffffffffffffffffffffffffff82169050919050565b5f610311826102e8565b9050919050565b61032181610307565b811461032b575f80fd5b50565b5f8151905061033c81610318565b92915050565b5f8060408385031215610358576103576102e4565b5b5f6103658582860161032e565b92505060206103768582860161032e565b9150509250929050565b611c438061038d5f395ff3fe608060405234801561000f575f80fd5b5060043610610135575f3560e01c8063853b5d19116100b6578063c5df91b51161007a578063c5df91b51461036b578063ca0d535814610387578063ca15c873146103a3578063d547741f146103d3578063e58378bb146103ef578063f2fde38b1461040d57610135565b8063853b5d19146102b55780639010d07c146102d157806391d1485414610301578063a217fddf14610331578063ada8f9191461034f57610135565b80632f2ff15d116100fd5780632f2ff15d1461021557806336568abe14610231578063755e936f1461024d57806381e4c9a31461026957806384cf84e11461029957610135565b806301ffc9a7146101395780631af6c43114610169578063248a9ca3146101995780632505a3bd146101c95780632ad82eea146101f9575b5f80fd5b610153600480360381019061014e91906113a4565b610429565b60405161016091906113e9565b60405180910390f35b610183600480360381019061017e9190611435565b6104a2565b60405161019091906113e9565b60405180910390f35b6101b360048036038101906101ae9190611435565b6104c8565b6040516101c0919061146f565b60405180910390f35b6101e360048036038101906101de91906115c4565b6104e4565b6040516101f091906113e9565b60405180910390f35b610213600480360381019061020e91906115c4565b610511565b005b61022f600480360381019061022a9190611665565b610620565b005b61024b60048036038101906102469190611665565b610642565b005b61026760048036038101906102629190611741565b6106bd565b005b610283600480360381019061027e9190611741565b6107ca565b60405161029091906113e9565b60405180910390f35b6102b360048036038101906102ae9190611435565b6107f7565b005b6102cf60048036038101906102ca9190611741565b6108ce565b005b6102eb60048036038101906102e691906117bb565b6109dd565b6040516102f89190611808565b60405180910390f35b61031b60048036038101906103169190611665565b610a09565b60405161032891906113e9565b60405180910390f35b610339610a6c565b604051610346919061146f565b60405180910390f35b61036960048036038101906103649190611821565b610a72565b005b61038560048036038101906103809190611435565b610a8d565b005b6103a1600480360381019061039c91906115c4565b610b62565b005b6103bd60048036038101906103b89190611435565b610c6f565b6040516103ca919061185b565b60405180910390f35b6103ed60048036038101906103e89190611665565b610c90565b005b6103f7610cb2565b604051610404919061146f565b60405180910390f35b61042760048036038101906104229190611821565b610cd6565b005b5f7f5a05180f000000000000000000000000000000000000000000000000000000007bffffffffffffffffffffffffffffffffffffffffffffffffffffffff1916827bffffffffffffffffffffffffffffffffffffffffffffffffffffffff1916148061049b575061049a82610d5b565b5b9050919050565b5f60035f8381526020019081526020015f205f9054906101000a900460ff169050919050565b5f805f8381526020019081526020015f20600101549050919050565b5f60045f838051906020012081526020019081526020015f205f9054906101000a900460ff169050919050565b7fb19546dff01e856fb3f010c267a7b1c60363cf8a4664e21cc89c26224620214e61053b81610dd4565b5f8280519060200120905060045f8281526020019081526020015f205f9054906101000a900460ff16156105a4576040517f08c379a000000000000000000000000000000000000000000000000000000000815260040161059b906118ce565b60405180910390fd5b600160045f8381526020019081526020015f205f6101000a81548160ff0219169083151502179055503373ffffffffffffffffffffffffffffffffffffffff167fcbfa55581c230aeb174d969838d927cdd297755dfb967a33134312f1377ee71d84604051610613919061193c565b60405180910390a2505050565b610629826104c8565b61063281610dd4565b61063c8383610de8565b50505050565b61064a610e2b565b73ffffffffffffffffffffffffffffffffffffffff168173ffffffffffffffffffffffffffffffffffffffff16146106ae576040517f6697b23200000000000000000000000000000000000000000000000000000000815260040160405180910390fd5b6106b88282610e32565b505050565b7fb19546dff01e856fb3f010c267a7b1c60363cf8a4664e21cc89c26224620214e6106e781610dd4565b5f8280519060200120905060025f8281526020019081526020015f205f9054906101000a900460ff1661074f576040517f08c379a0000000000000000000000000000000000000000000000000000000008152600401610746906119a6565b60405180910390fd5b5f60025f8381526020019081526020015f205f6101000a81548160ff0219169083151502179055503373ffffffffffffffffffffffffffffffffffffffff167f66e43f8252a3257fe010a4fd6ae50f57624762cc64a6eceadb04b18cfdefac7d846040516107bd9190611a16565b60405180910390a2505050565b5f60025f838051906020012081526020019081526020015f205f9054906101000a900460ff169050919050565b7fb19546dff01e856fb3f010c267a7b1c60363cf8a4664e21cc89c26224620214e61082181610dd4565b61082a826104a2565b1561086a576040517f08c379a000000000000000000000000000000000000000000000000000000000815260040161086190611a80565b60405180910390fd5b600160035f8481526020019081526020015f205f6101000a81548160ff0219169083151502179055507f010120d82c0c66b257c0ea628d405b1d3c2d37bb8dd9141f6c5c12cb0375c572826040516108c2919061146f565b60405180910390a15050565b7fb19546dff01e856fb3f010c267a7b1c60363cf8a4664e21cc89c26224620214e6108f881610dd4565b5f8280519060200120905060025f8281526020019081526020015f205f9054906101000a900460ff1615610961576040517f08c379a0000000000000000000000000000000000000000000000000000000008152600401610958906118ce565b60405180910390fd5b600160025f8381526020019081526020015f205f6101000a81548160ff0219169083151502179055503373ffffffffffffffffffffffffffffffffffffffff167f0a249d4766726d36cb6d6ac22cf998dc9fc02bb4ff9fda73ec1e3061c8a1db09846040516109d09190611a16565b60405180910390a2505050565b5f610a018260015f8681526020019081526020015f20610e7590919063ffffffff16565b905092915050565b5f805f8481526020019081526020015f205f015f8373ffffffffffffffffffffffffffffffffffffffff1673ffffffffffffffffffffffffffffffffffffffff1681526020019081526020015f205f9054906101000a900460ff16905092915050565b5f801b81565b610a7e5f801b82610620565b610a8a5f801b33610642565b50565b7fb19546dff01e856fb3f010c267a7b1c60363cf8a4664e21cc89c26224620214e610ab781610dd4565b610ac0826104a2565b610aff576040517f08c379a0000000000000000000000000000000000000000000000000000000008152600401610af690611b0e565b60405180910390fd5b5f60035f8481526020019081526020015f205f6101000a81548160ff0219169083151502179055507f4072861add20da436ef0a8274b90d102aea17b603f972cc8196d51f1a5d5617982604051610b56919061146f565b60405180910390a15050565b7fb19546dff01e856fb3f010c267a7b1c60363cf8a4664e21cc89c26224620214e610b8c81610dd4565b5f8280519060200120905060045f8281526020019081526020015f205f9054906101000a900460ff16610bf4576040517f08c379a0000000000000000000000000000000000000000000000000000000008152600401610beb906119a6565b60405180910390fd5b5f60045f8381526020019081526020015f205f6101000a81548160ff0219169083151502179055503373ffffffffffffffffffffffffffffffffffffffff167f69c40cdda8ad6e074bf320a4a76804a6652eb5231bda91b690dcb98010b2707984604051610c62919061193c565b60405180910390a2505050565b5f610c8960015f8481526020019081526020015f20610e8c565b9050919050565b610c99826104c8565b610ca281610dd4565b610cac8383610e32565b50505050565b7fb19546dff01e856fb3f010c267a7b1c60363cf8a4664e21cc89c26224620214e81565b5f610d017fb19546dff01e856fb3f010c267a7b1c60363cf8a4664e21cc89c26224620214e5f6109dd565b9050610d2d7fb19546dff01e856fb3f010c267a7b1c60363cf8a4664e21cc89c26224620214e82610c90565b610d577fb19546dff01e856fb3f010c267a7b1c60363cf8a4664e21cc89c26224620214e83610620565b5050565b5f7f7965db0b000000000000000000000000000000000000000000000000000000007bffffffffffffffffffffffffffffffffffffffffffffffffffffffff1916827bffffffffffffffffffffffffffffffffffffffffffffffffffffffff19161480610dcd5750610dcc82610e9f565b5b9050919050565b610de581610de0610e2b565b610f08565b50565b5f80610df48484610f59565b90508015610e2157610e1f8360015f8781526020019081526020015f2061104290919063ffffffff16565b505b8091505092915050565b5f33905090565b5f80610e3e848461106f565b90508015610e6b57610e698360015f8781526020019081526020015f2061115890919063ffffffff16565b505b8091505092915050565b5f610e82835f0183611185565b5f1c905092915050565b5f610e98825f016111ac565b9050919050565b5f7f01ffc9a7000000000000000000000000000000000000000000000000000000007bffffffffffffffffffffffffffffffffffffffffffffffffffffffff1916827bffffffffffffffffffffffffffffffffffffffffffffffffffffffff1916149050919050565b610f128282610a09565b610f555780826040517fe2517d3f000000000000000000000000000000000000000000000000000000008152600401610f4c929190611b2c565b60405180910390fd5b5050565b5f610f648383610a09565b6110385760015f808581526020019081526020015f205f015f8473ffffffffffffffffffffffffffffffffffffffff1673ffffffffffffffffffffffffffffffffffffffff1681526020019081526020015f205f6101000a81548160ff021916908315150217905550610fd5610e2b565b73ffffffffffffffffffffffffffffffffffffffff168273ffffffffffffffffffffffffffffffffffffffff16847f2f8788117e7eff1d82e926ec794901d17c78024a50270940304540a733656f0d60405160405180910390a46001905061103c565b5f90505b92915050565b5f611067835f018373ffffffffffffffffffffffffffffffffffffffff165f1b6111bb565b905092915050565b5f61107a8383610a09565b1561114e575f805f8581526020019081526020015f205f015f8473ffffffffffffffffffffffffffffffffffffffff1673ffffffffffffffffffffffffffffffffffffffff1681526020019081526020015f205f6101000a81548160ff0219169083151502179055506110eb610e2b565b73ffffffffffffffffffffffffffffffffffffffff168273ffffffffffffffffffffffffffffffffffffffff16847ff6391f5c32d9c69d2a47ea670b442974b53935d1edc7fd64eb21e047a839171b60405160405180910390a460019050611152565b5f90505b92915050565b5f61117d835f018373ffffffffffffffffffffffffffffffffffffffff165f1b611222565b905092915050565b5f825f01828154811061119b5761119a611b53565b5b905f5260205f200154905092915050565b5f815f01805490509050919050565b5f6111c6838361131e565b61121857825f0182908060018154018082558091505060019003905f5260205f20015f9091909190915055825f0180549050836001015f8481526020019081526020015f20819055506001905061121c565b5f90505b92915050565b5f80836001015f8481526020019081526020015f205490505f8114611313575f60018261124f9190611bad565b90505f6001865f01805490506112659190611bad565b90508082146112cb575f865f01828154811061128457611283611b53565b5b905f5260205f200154905080875f0184815481106112a5576112a4611b53565b5b905f5260205f20018190555083876001015f8381526020019081526020015f2081905550505b855f018054806112de576112dd611be0565b5b600190038181905f5260205f20015f90559055856001015f8681526020019081526020015f205f905560019350505050611318565b5f9150505b92915050565b5f80836001015f8481526020019081526020015f20541415905092915050565b5f604051905090565b5f80fd5b5f80fd5b5f7fffffffff0000000000000000000000000000000000000000000000000000000082169050919050565b6113838161134f565b811461138d575f80fd5b50565b5f8135905061139e8161137a565b92915050565b5f602082840312156113b9576113b8611347565b5b5f6113c684828501611390565b91505092915050565b5f8115159050919050565b6113e3816113cf565b82525050565b5f6020820190506113fc5f8301846113da565b92915050565b5f819050919050565b61141481611402565b811461141e575f80fd5b50565b5f8135905061142f8161140b565b92915050565b5f6020828403121561144a57611449611347565b5b5f61145784828501611421565b91505092915050565b61146981611402565b82525050565b5f6020820190506114825f830184611460565b92915050565b5f80fd5b5f80fd5b5f601f19601f8301169050919050565b7f4e487b71000000000000000000000000000000000000000000000000000000005f52604160045260245ffd5b6114d682611490565b810181811067ffffffffffffffff821117156114f5576114f46114a0565b5b80604052505050565b5f61150761133e565b905061151382826114cd565b919050565b5f67ffffffffffffffff821115611532576115316114a0565b5b61153b82611490565b9050602081019050919050565b828183375f83830152505050565b5f61156861156384611518565b6114fe565b9050828152602081018484840111156115845761158361148c565b5b61158f848285611548565b509392505050565b5f82601f8301126115ab576115aa611488565b5b81356115bb848260208601611556565b91505092915050565b5f602082840312156115d9576115d8611347565b5b5f82013567ffffffffffffffff8111156115f6576115f561134b565b5b61160284828501611597565b91505092915050565b5f73ffffffffffffffffffffffffffffffffffffffff82169050919050565b5f6116348261160b565b9050919050565b6116448161162a565b811461164e575f80fd5b50565b5f8135905061165f8161163b565b92915050565b5f806040838503121561167b5761167a611347565b5b5f61168885828601611421565b925050602061169985828601611651565b9150509250929050565b5f67ffffffffffffffff8211156116bd576116bc6114a0565b5b6116c682611490565b9050602081019050919050565b5f6116e56116e0846116a3565b6114fe565b9050828152602081018484840111156117015761170061148c565b5b61170c848285611548565b509392505050565b5f82601f83011261172857611727611488565b5b81356117388482602086016116d3565b91505092915050565b5f6020828403121561175657611755611347565b5b5f82013567ffffffffffffffff8111156117735761177261134b565b5b61177f84828501611714565b91505092915050565b5f819050919050565b61179a81611788565b81146117a4575f80fd5b50565b5f813590506117b581611791565b92915050565b5f80604083850312156117d1576117d0611347565b5b5f6117de85828601611421565b92505060206117ef858286016117a7565b9150509250929050565b6118028161162a565b82525050565b5f60208201905061181b5f8301846117f9565b92915050565b5f6020828403121561183657611835611347565b5b5f61184384828501611651565b91505092915050565b61185581611788565b82525050565b5f60208201905061186e5f83018461184c565b92915050565b5f82825260208201905092915050565b7f4b657920697320616c72656164792076616c69640000000000000000000000005f82015250565b5f6118b8601483611874565b91506118c382611884565b602082019050919050565b5f6020820190508181035f8301526118e5816118ac565b9050919050565b5f81519050919050565b8281835e5f83830152505050565b5f61190e826118ec565b6119188185611874565b93506119288185602086016118f6565b61193181611490565b840191505092915050565b5f6020820190508181035f8301526119548184611904565b905092915050565b7f43616e6e6f74207265766f6b6520696e76616c6964206b6579000000000000005f82015250565b5f611990601983611874565b915061199b8261195c565b602082019050919050565b5f6020820190508181035f8301526119bd81611984565b9050919050565b5f81519050919050565b5f82825260208201905092915050565b5f6119e8826119c4565b6119f281856119ce565b9350611a028185602086016118f6565b611a0b81611490565b840191505092915050565b5f6020820190508181035f830152611a2e81846119de565b905092915050565b7f496d616765494420697320616c726561647920737570706f72746564000000005f82015250565b5f611a6a601c83611874565b9150611a7582611a36565b602082019050919050565b5f6020820190508181035f830152611a9781611a5e565b9050919050565b7f43616e6e6f74207265766f6b6520756e737570706f7274656420496d616765495f8201527f4400000000000000000000000000000000000000000000000000000000000000602082015250565b5f611af8602183611874565b9150611b0382611a9e565b604082019050919050565b5f6020820190508181035f830152611b2581611aec565b9050919050565b5f604082019050611b3f5f8301856117f9565b611b4c6020830184611460565b9392505050565b7f4e487b71000000000000000000000000000000000000000000000000000000005f52603260045260245ffd5b7f4e487b71000000000000000000000000000000000000000000000000000000005f52601160045260245ffd5b5f611bb782611788565b9150611bc283611788565b9250828203905081811115611bda57611bd9611b80565b5b92915050565b7f4e487b71000000000000000000000000000000000000000000000000000000005f52603160045260245ffdfea2646970667358221220fc08ad07db2c5830b4375ef335a5fc09cdbea7bd42818e7e6f65fed4c925612364736f6c634300081a003360e060405234801561000f575f80fd5b506040516126bb3803806126bb8339818101604052810190610031919061022d565b808073ffffffffffffffffffffffffffffffffffffffff1660c08173ffffffffffffffffffffffffffffffffffffffff16815250505061007561014960201b60201c565b156100ac576040517f7a47c9a200000000000000000000000000000000000000000000000000000000815260040160405180910390fd5b63deafbeef60e01b6040516100c0906101b1565b6100ca9190610292565b604051809103905ff0801580156100e3573d5f803e3d5ffd5b5073ffffffffffffffffffffffffffffffffffffffff1660a08173ffffffffffffffffffffffffffffffffffffffff168152505060018081111561012a576101296102ab565b5b608081600181111561013f5761013e6102ab565b5b81525050506102d8565b5f60014614806101595750600a46145b806101645750608946145b80610170575061014446145b8061017c57506101e046145b80610188575061210546145b80610194575061a4b146145b806101a0575061a4ba46145b806101ac575061e70846145b905090565b61100a806116b183390190565b5f80fd5b5f73ffffffffffffffffffffffffffffffffffffffff82169050919050565b5f6101eb826101c2565b9050919050565b5f6101fc826101e1565b9050919050565b61020c816101f2565b8114610216575f80fd5b50565b5f8151905061022781610203565b92915050565b5f60208284031215610242576102416101be565b5b5f61024f84828501610219565b91505092915050565b5f7fffffffff0000000000000000000000000000000000000000000000000000000082169050919050565b61028c81610258565b82525050565b5f6020820190506102a55f830184610283565b92915050565b7f4e487b71000000000000000000000000000000000000000000000000000000005f52602160045260245ffd5b60805160a05160c05161139461031d5f395f818161011401528181610240015261053401525f818160ef015261019201525f818161013a015261026401526113945ff3fe608060405234801561000f575f80fd5b5060043610610055575f3560e01c806308c84e70146100595780633fd66f22146100775780639a44ea8414610095578063c4fa74e5146100b3578063f4cbae94146100cf575b5f80fd5b6100616100ed565b60405161006e9190610747565b60405180910390f35b61007f610111565b60405161008c9190610780565b60405180910390f35b61009d610138565b6040516100aa919061080c565b60405180910390f35b6100cd60048036038101906100c89190610918565b61015c565b005b6100d761023e565b6040516100e49190610780565b60405180910390f35b7f000000000000000000000000000000000000000000000000000000000000000081565b5f7f0000000000000000000000000000000000000000000000000000000000000000905090565b7f000000000000000000000000000000000000000000000000000000000000000081565b610175848036038101906101709190610c7d565b610262565b610190848036038101906101899190610c7d565b83836102f6565b7f000000000000000000000000000000000000000000000000000000000000000073ffffffffffffffffffffffffffffffffffffffff1663ab750e756101e7865f018036038101906101e29190610ca9565b610612565b866101400135866040518463ffffffff1660e01b815260040161020c93929190610d44565b5f6040518083038186803b158015610222575f80fd5b505afa158015610234573d5f803e3d5ffd5b5050505050505050565b7f000000000000000000000000000000000000000000000000000000000000000081565b7f0000000000000000000000000000000000000000000000000000000000000000600181111561029557610294610799565b5b6102a1825f01516106c0565b60018111156102b3576102b2610799565b5b146102f3576040517f08c379a00000000000000000000000000000000000000000000000000000000081526004016102ea90610dda565b60405180910390fd5b50565b8173ffffffffffffffffffffffffffffffffffffffff1683606001515f015173ffffffffffffffffffffffffffffffffffffffff161461036b576040517f08c379a000000000000000000000000000000000000000000000000000000000815260040161036290610e42565b60405180910390fd5b807bffffffffffffffffffffffffffffffffffffffffffffffffffffffff19168360600151602001517bffffffffffffffffffffffffffffffffffffffffffffffffffffffff1916146103f3576040517f08c379a00000000000000000000000000000000000000000000000000000000081526004016103ea90610eaa565b60405180910390fd5b468360600151604001511461043d576040517f08c379a000000000000000000000000000000000000000000000000000000000815260040161043490610f12565b60405180910390fd5b4383606001516060015110610487576040517f08c379a000000000000000000000000000000000000000000000000000000000815260040161047e90610fa0565b60405180910390fd5b4361010084606001516060015161049e9190610feb565b10156104df576040517f08c379a00000000000000000000000000000000000000000000000000000000081526004016104d69061108e565b60405180910390fd5b8260600151606001514083606001516080015114610532576040517f08c379a0000000000000000000000000000000000000000000000000000000008152600401610529906110f6565b60405180910390fd5b7f000000000000000000000000000000000000000000000000000000000000000073ffffffffffffffffffffffffffffffffffffffff16631af6c43184602001516040518263ffffffff1660e01b815260040161058f9190611114565b602060405180830381865afa1580156105aa573d5f803e3d5ffd5b505050506040513d601f19601f820116820180604052508101906105ce9190611162565b61060d576040517f08c379a0000000000000000000000000000000000000000000000000000000008152600401610604906111d7565b60405180910390fd5b505050565b606060018081111561062757610626610799565b5b8260400151600181111561063e5761063d610799565b5b0361068f575f82602001515f6008811061065b5761065a6111f5565b5b60200201519050825f015181604051602001610678929190611262565b6040516020818303038152906040529150506106bb565b815f015182602001516040516020016106a9929190611332565b60405160208183030381529060405290505b919050565b5f81604001519050919050565b5f73ffffffffffffffffffffffffffffffffffffffff82169050919050565b5f819050919050565b5f61070f61070a610705846106cd565b6106ec565b6106cd565b9050919050565b5f610720826106f5565b9050919050565b5f61073182610716565b9050919050565b61074181610727565b82525050565b5f60208201905061075a5f830184610738565b92915050565b5f61076a82610716565b9050919050565b61077a81610760565b82525050565b5f6020820190506107935f830184610771565b92915050565b7f4e487b71000000000000000000000000000000000000000000000000000000005f52602160045260245ffd5b600281106107d7576107d6610799565b5b50565b5f8190506107e7826107c6565b919050565b5f6107f6826107da565b9050919050565b610806816107ec565b82525050565b5f60208201905061081f5f8301846107fd565b92915050565b5f604051905090565b5f80fd5b5f80fd5b5f610220828403121561084c5761084b610832565b5b81905092915050565b5f819050919050565b61086781610855565b8114610871575f80fd5b50565b5f813590506108828161085e565b92915050565b5f610892826106cd565b9050919050565b6108a281610888565b81146108ac575f80fd5b50565b5f813590506108bd81610899565b92915050565b5f7fffffffff0000000000000000000000000000000000000000000000000000000082169050919050565b6108f7816108c3565b8114610901575f80fd5b50565b5f81359050610912816108ee565b92915050565b5f805f8061028085870312156109315761093061082e565b5b5f61093e87828801610836565b94505061022061095087828801610874565b935050610240610962878288016108af565b92505061026061097487828801610904565b91505092959194509250565b5f80fd5b5f601f19601f8301169050919050565b7f4e487b71000000000000000000000000000000000000000000000000000000005f52604160045260245ffd5b6109ca82610984565b810181811067ffffffffffffffff821117156109e9576109e8610994565b5b80604052505050565b5f6109fb610825565b9050610a0782826109c1565b919050565b5f80fd5b5f67ffffffffffffffff821115610a2a57610a29610994565b5b602082029050919050565b5f80fd5b5f610a4b610a4684610a10565b6109f2565b90508060208402830185811115610a6557610a64610a35565b5b835b81811015610a8e5780610a7a8882610874565b845260208401935050602081019050610a67565b5050509392505050565b5f82601f830112610aac57610aab610a0c565b5b6008610ab9848285610a39565b91505092915050565b60028110610ace575f80fd5b50565b5f81359050610adf81610ac2565b92915050565b5f6101408284031215610afb57610afa610980565b5b610b0560606109f2565b90505f610b1484828501610904565b5f830152506020610b2784828501610a98565b602083015250610120610b3c84828501610ad1565b60408301525092915050565b5f819050919050565b610b5a81610b48565b8114610b64575f80fd5b50565b5f81359050610b7581610b51565b92915050565b5f60a08284031215610b9057610b8f610980565b5b610b9a60a06109f2565b90505f610ba9848285016108af565b5f830152506020610bbc84828501610904565b6020830152506040610bd084828501610b67565b6040830152506060610be484828501610b67565b6060830152506080610bf884828501610874565b60808301525092915050565b5f6102208284031215610c1a57610c19610980565b5b610c2460806109f2565b90505f610c3384828501610ae5565b5f83015250610140610c4784828501610874565b602083015250610160610c5c84828501610b67565b604083015250610180610c7184828501610b7b565b60608301525092915050565b5f6102208284031215610c9357610c9261082e565b5b5f610ca084828501610c04565b91505092915050565b5f6101408284031215610cbf57610cbe61082e565b5b5f610ccc84828501610ae5565b91505092915050565b5f81519050919050565b5f82825260208201905092915050565b8281835e5f83830152505050565b5f610d0782610cd5565b610d118185610cdf565b9350610d21818560208601610cef565b610d2a81610984565b840191505092915050565b610d3e81610855565b82525050565b5f6060820190508181035f830152610d5c8186610cfd565b9050610d6b6020830185610d35565b610d786040830184610d35565b949350505050565b5f82825260208201905092915050565b7f496e76616c69642070726f6f66206d6f646500000000000000000000000000005f82015250565b5f610dc4601283610d80565b9150610dcf82610d90565b602082019050919050565b5f6020820190508181035f830152610df181610db8565b9050919050565b7f496e76616c69642070726f7665720000000000000000000000000000000000005f82015250565b5f610e2c600e83610d80565b9150610e3782610df8565b602082019050919050565b5f6020820190508181035f830152610e5981610e20565b9050919050565b7f496e76616c69642073656c6563746f72000000000000000000000000000000005f82015250565b5f610e94601083610d80565b9150610e9f82610e60565b602082019050919050565b5f6020820190508181035f830152610ec181610e88565b9050919050565b7f496e76616c696420636861696e206964000000000000000000000000000000005f82015250565b5f610efc601083610d80565b9150610f0782610ec8565b602082019050919050565b5f6020820190508181035f830152610f2981610ef0565b9050919050565b7f496e76616c696420626c6f636b206e756d6265723a20626c6f636b2066726f6d5f8201527f2066757475726500000000000000000000000000000000000000000000000000602082015250565b5f610f8a602783610d80565b9150610f9582610f30565b604082019050919050565b5f6020820190508181035f830152610fb781610f7e565b9050919050565b7f4e487b71000000000000000000000000000000000000000000000000000000005f52601160045260245ffd5b5f610ff582610b48565b915061100083610b48565b925082820190508082111561101857611017610fbe565b5b92915050565b7f496e76616c696420626c6f636b206e756d6265723a20626c6f636b20746f6f205f8201527f6f6c640000000000000000000000000000000000000000000000000000000000602082015250565b5f611078602383610d80565b91506110838261101e565b604082019050919050565b5f6020820190508181035f8301526110a58161106c565b9050919050565b7f496e76616c696420626c6f636b206861736800000000000000000000000000005f82015250565b5f6110e0601283610d80565b91506110eb826110ac565b602082019050919050565b5f6020820190508181035f83015261110d816110d4565b9050919050565b5f6020820190506111275f830184610d35565b92915050565b5f8115159050919050565b6111418161112d565b811461114b575f80fd5b50565b5f8151905061115c81611138565b92915050565b5f602082840312156111775761117661082e565b5b5f6111848482850161114e565b91505092915050565b7f556e737570706f727465642043616c6c477565737449640000000000000000005f82015250565b5f6111c1601783610d80565b91506111cc8261118d565b602082019050919050565b5f6020820190508181035f8301526111ee816111b5565b9050919050565b7f4e487b71000000000000000000000000000000000000000000000000000000005f52603260045260245ffd5b5f819050919050565b61123c611237826108c3565b611222565b82525050565b5f819050919050565b61125c61125782610855565b611242565b82525050565b5f61126d828561122b565b60048201915061127d828461124b565b6020820191508190509392505050565b5f60089050919050565b5f81905092915050565b5f819050919050565b6112b381610855565b82525050565b5f6112c483836112aa565b60208301905092915050565b5f602082019050919050565b6112e58161128d565b6112ef8184611297565b92506112fa826112a1565b805f5b8381101561132a57815161131187826112b9565b965061131c836112d0565b9250506001810190506112fd565b505050505050565b5f61133d828561122b565b60048201915061134d82846112dc565b61010082019150819050939250505056fea26469706673582212203170dc015b8ab2eaf495b53011885cbc773106958664b46b035cfc4d729eca0064736f6c634300081a003360a060405234801561000f575f80fd5b5060405161100a38038061100a833981810160405281019061003191906100d6565b807bffffffffffffffffffffffffffffffffffffffffffffffffffffffff19166080817bffffffffffffffffffffffffffffffffffffffffffffffffffffffff19168152505050610101565b5f80fd5b5f7fffffffff0000000000000000000000000000000000000000000000000000000082169050919050565b6100b581610081565b81146100bf575f80fd5b50565b5f815190506100d0816100ac565b92915050565b5f602082840312156100eb576100ea61007d565b5b5f6100f8848285016100c2565b91505092915050565b608051610edc61012e5f395f8181610111015281816101670152818161024201526102a50152610edc5ff3fe608060405234801561000f575f80fd5b5060043610610055575f3560e01c8063053c238d146100595780631599ead5146100775780633a115bb11461009357806366cf0e4b146100c3578063ab750e75146100f3575b5f80fd5b61006161010f565b60405161006e91906106e1565b60405180910390f35b610091600480360381019061008c9190610724565b610133565b005b6100ad60048036038101906100a8919061079e565b610152565b6040516100ba9190610882565b60405180910390f35b6100dd60048036038101906100d891906108a2565b6101b7565b6040516100ea9190610882565b60405180910390f35b61010d60048036038101906101089190610941565b6101e1565b005b7f000000000000000000000000000000000000000000000000000000000000000081565b61014f81805f019061014591906109be565b8360200135610203565b50565b61015a610621565b60405180604001604052807f000000000000000000000000000000000000000000000000000000000000000084604051602001610198929190610a60565b6040516020818303038152906040528152602001838152509050919050565b6101bf610621565b6101d96101d46101cf858561038d565b61042f565b610152565b905092915050565b6101fd84846101f86101f3868661038d565b61042f565b610203565b50505050565b82825f9060049261021693929190610a93565b906102219190610ae3565b7bffffffffffffffffffffffffffffffffffffffffffffffffffffffff19167f00000000000000000000000000000000000000000000000000000000000000007bffffffffffffffffffffffffffffffffffffffffffffffffffffffff1916146103015782825f9060049261029893929190610a93565b906102a39190610ae3565b7f00000000000000000000000000000000000000000000000000000000000000006040517fb8b38d4c0000000000000000000000000000000000000000000000000000000081526004016102f8929190610b41565b60405180910390fd5b806040516020016103129190610b68565b604051602081830303815290604052805190602001208383600490809261033b93929190610a93565b604051610349929190610bbe565b604051809103902014610388576040517f439cc0cd00000000000000000000000000000000000000000000000000000000815260040160405180910390fd5b505050565b61039561063d565b6040518060a001604052808481526020017fa3acc27117418996340b84e5a90f3ef4c49d22c79e44aad822ec9c313e1eb8e25f1b815260200160405180604001604052805f60028111156103ec576103eb610bd6565b5b81526020015f60ff1681525081526020015f801b815260200161042460405180604001604052808681526020015f801b81525061054c565b815250905092915050565b5f60028060405161043f90610c4d565b602060405180830381855afa15801561045a573d5f803e3d5ffd5b5050506040513d601f19601f8201168201806040525081019061047d9190610c75565b8360600151845f015185602001518660800151601888604001515f015160028111156104ac576104ab610bd6565b5b63ffffffff16901b601889604001516020015160ff1663ffffffff16901b6008600461ffff16901b6040516020016104eb989796959493929190610d24565b6040516020818303038152906040526040516105079190610de5565b602060405180830381855afa158015610522573d5f803e3d5ffd5b5050506040513d601f19601f820116820180604052508101906105459190610c75565b9050919050565b5f60028060405161055c90610e45565b602060405180830381855afa158015610577573d5f803e3d5ffd5b5050506040513d601f19601f8201168201806040525081019061059a9190610c75565b835f015184602001516008600261ffff16901b6040516020016105c09493929190610e59565b6040516020818303038152906040526040516105dc9190610de5565b602060405180830381855afa1580156105f7573d5f803e3d5ffd5b5050506040513d601f19601f8201168201806040525081019061061a9190610c75565b9050919050565b6040518060400160405280606081526020015f80191681525090565b6040518060a001604052805f80191681526020015f801916815260200161066261067a565b81526020015f80191681526020015f80191681525090565b60405180604001604052805f600281111561069857610697610bd6565b5b81526020015f60ff1681525090565b5f7fffffffff0000000000000000000000000000000000000000000000000000000082169050919050565b6106db816106a7565b82525050565b5f6020820190506106f45f8301846106d2565b92915050565b5f80fd5b5f80fd5b5f80fd5b5f6040828403121561071b5761071a610702565b5b81905092915050565b5f60208284031215610739576107386106fa565b5b5f82013567ffffffffffffffff811115610756576107556106fe565b5b61076284828501610706565b91505092915050565b5f819050919050565b61077d8161076b565b8114610787575f80fd5b50565b5f8135905061079881610774565b92915050565b5f602082840312156107b3576107b26106fa565b5b5f6107c08482850161078a565b91505092915050565b5f81519050919050565b5f82825260208201905092915050565b8281835e5f83830152505050565b5f601f19601f8301169050919050565b5f61080b826107c9565b61081581856107d3565b93506108258185602086016107e3565b61082e816107f1565b840191505092915050565b6108428161076b565b82525050565b5f604083015f8301518482035f8601526108628282610801565b91505060208301516108776020860182610839565b508091505092915050565b5f6020820190508181035f83015261089a8184610848565b905092915050565b5f80604083850312156108b8576108b76106fa565b5b5f6108c58582860161078a565b92505060206108d68582860161078a565b9150509250929050565b5f80fd5b5f80fd5b5f80fd5b5f8083601f840112610901576109006108e0565b5b8235905067ffffffffffffffff81111561091e5761091d6108e4565b5b60208301915083600182028301111561093a576109396108e8565b5b9250929050565b5f805f8060608587031215610959576109586106fa565b5b5f85013567ffffffffffffffff811115610976576109756106fe565b5b610982878288016108ec565b945094505060206109958782880161078a565b92505060406109a68782880161078a565b91505092959194509250565b5f80fd5b5f80fd5b5f80fd5b5f80833560016020038436030381126109da576109d96109b2565b5b80840192508235915067ffffffffffffffff8211156109fc576109fb6109b6565b5b602083019250600182023603831315610a1857610a176109ba565b5b509250929050565b5f819050919050565b610a3a610a35826106a7565b610a20565b82525050565b5f819050919050565b610a5a610a558261076b565b610a40565b82525050565b5f610a6b8285610a29565b600482019150610a7b8284610a49565b6020820191508190509392505050565b5f80fd5b5f80fd5b5f8085851115610aa657610aa5610a8b565b5b83861115610ab757610ab6610a8f565b5b6001850283019150848603905094509492505050565b5f82905092915050565b5f82821b905092915050565b5f610aee8383610acd565b82610af981356106a7565b92506004821015610b3957610b347fffffffff0000000000000000000000000000000000000000000000000000000083600403600802610ad7565b831692505b505092915050565b5f604082019050610b545f8301856106d2565b610b6160208301846106d2565b9392505050565b5f610b738284610a49565b60208201915081905092915050565b5f81905092915050565b828183375f83830152505050565b5f610ba58385610b82565b9350610bb2838584610b8c565b82840190509392505050565b5f610bca828486610b9a565b91508190509392505050565b7f4e487b71000000000000000000000000000000000000000000000000000000005f52602160045260245ffd5b7f72697363302e52656365697074436c61696d00000000000000000000000000005f82015250565b5f610c37601283610b82565b9150610c4282610c03565b601282019050919050565b5f610c5782610c2b565b9150819050919050565b5f81519050610c6f81610774565b92915050565b5f60208284031215610c8a57610c896106fa565b5b5f610c9784828501610c61565b91505092915050565b5f63ffffffff82169050919050565b5f8160e01b9050919050565b5f610cc582610caf565b9050919050565b610cdd610cd882610ca0565b610cbb565b82525050565b5f61ffff82169050919050565b5f8160f01b9050919050565b5f610d0682610cf0565b9050919050565b610d1e610d1982610ce3565b610cfc565b82525050565b5f610d2f828b610a49565b602082019150610d3f828a610a49565b602082019150610d4f8289610a49565b602082019150610d5f8288610a49565b602082019150610d6f8287610a49565b602082019150610d7f8286610ccc565b600482019150610d8f8285610ccc565b600482019150610d9f8284610d0d565b6002820191508190509998505050505050505050565b5f610dbf826107c9565b610dc98185610b82565b9350610dd98185602086016107e3565b80840191505092915050565b5f610df08284610db5565b915081905092915050565b7f72697363302e4f757470757400000000000000000000000000000000000000005f82015250565b5f610e2f600c83610b82565b9150610e3a82610dfb565b600c82019050919050565b5f610e4f82610e23565b9150819050919050565b5f610e648287610a49565b602082019150610e748286610a49565b602082019150610e848285610a49565b602082019150610e948284610d0d565b6002820191508190509594505050505056fea2646970667358221220fcefde51259aaef0375518c9b8874ef63eaaf56996e37b641ea8ff3cef26abc064736f6c634300081a0033","linkReferences":{}},"methodIdentifiers":{"_setTestVerifier(address)":"9b8b30c8","prover()":"32a8f30f","takenEmailHashes(bytes32)":"5889d3ea","verifier()":"2b7ac3f3","verify(((bytes4,bytes32[8],uint8),bytes32,uint256,(address,bytes4,uint256,uint256,bytes32)),bytes32)":"b66327c9"},"id":69}