{"abi":[{"type":"function","name":"main","inputs":[{"name":"unverifiedEmail","type":"tuple","internalType":"struct UnverifiedEmail","components":[{"name":"email","type":"string","internalType":"string"},{"name":"dnsRecord","type":"tuple","internalType":"struct DnsRecord","components":[{"name":"name","type":"string","internalType":"string"},{"name":"recordType","type":"uint8","internalType":"uint8"},{"name":"data","type":"string","internalType":"string"},{"name":"ttl","type":"uint64","internalType":"uint64"}]},{"name":"verificationData","type":"tuple","internalType":"struct VerificationData","components":[{"name":"validUntil","type":"uint64","internalType":"uint64"},{"name":"signature","type":"bytes","internalType":"bytes"},{"name":"pubKey","type":"bytes","internalType":"bytes"}]}]}],"outputs":[{"name":"","type":"tuple","internalType":"struct Proof","components":[{"name":"seal","type":"tuple","internalType":"struct Seal","components":[{"name":"verifierSelector","type":"bytes4","internalType":"bytes4"},{"name":"seal","type":"bytes32[8]","internalType":"bytes32[8]"},{"name":"mode","type":"uint8","internalType":"enum ProofMode"}]},{"name":"callGuestId","type":"bytes32","internalType":"bytes32"},{"name":"length","type":"uint256","internalType":"uint256"},{"name":"callAssumptions","type":"tuple","internalType":"struct CallAssumptions","components":[{"name":"proverContractAddress","type":"address","internalType":"address"},{"name":"functionSelector","type":"bytes4","internalType":"bytes4"},{"name":"settleChainId","type":"uint256","internalType":"uint256"},{"name":"settleBlockNumber","type":"uint256","internalType":"uint256"},{"name":"settleBlockHash","type":"bytes32","internalType":"bytes32"}]}]},{"name":"","type":"bytes32","internalType":"bytes32"}],"stateMutability":"view"},{"type":"function","name":"proof","inputs":[],"outputs":[{"name":"","type":"tuple","internalType":"struct Proof","components":[{"name":"seal","type":"tuple","internalType":"struct Seal","components":[{"name":"verifierSelector","type":"bytes4","internalType":"bytes4"},{"name":"seal","type":"bytes32[8]","internalType":"bytes32[8]"},{"name":"mode","type":"uint8","internalType":"enum ProofMode"}]},{"name":"callGuestId","type":"bytes32","internalType":"bytes32"},{"name":"length","type":"uint256","internalType":"uint256"},{"name":"callAssumptions","type":"tuple","internalType":"struct CallAssumptions","components":[{"name":"proverContractAddress","type":"address","internalType":"address"},{"name":"functionSelector","type":"bytes4","internalType":"bytes4"},{"name":"settleChainId","type":"uint256","internalType":"uint256"},{"name":"settleBlockNumber","type":"uint256","internalType":"uint256"},{"name":"settleBlockHash","type":"bytes32","internalType":"bytes32"}]}]}],"stateMutability":"pure"},{"type":"function","name":"setBlock","inputs":[{"name":"blockNo","type":"uint256","internalType":"uint256"}],"outputs":[],"stateMutability":"nonpayable"},{"type":"function","name":"setChain","inputs":[{"name":"chainId","type":"uint256","internalType":"uint256"},{"name":"blockNo","type":"uint256","internalType":"uint256"}],"outputs":[],"stateMutability":"nonpayable"},{"type":"function","name":"stringToAddress","inputs":[{"name":"str","type":"string","internalType":"string"}],"outputs":[{"name":"","type":"address","internalType":"address"}],"stateMutability":"pure"},{"type":"error","name":"FailedInnerCall","inputs":[]}],"bytecode":{"object":"0x6080604052348015600e575f5ffd5b5061242e8061001c5f395ff3fe608060405234801561000f575f5ffd5b5060043610610055575f3560e01c806315706fdf1461005957806387cea3ae14610089578063ac6981e5146100a5578063faf924cf146100d6578063ffbc5638146100f4575b5f5ffd5b610073600480360381019061006e9190611049565b610110565b60405161008091906110cf565b60405180910390f35b6100a3600480360381019061009e919061111b565b6102b2565b005b6100bf60048036038101906100ba9190611168565b61038f565b6040516100cd929190611436565b60405180910390f35b6100de610515565b6040516100eb919061145f565b60405180910390f35b61010e60048036038101906101099190611479565b61052a565b005b5f5f829050602a815114610159576040517f08c379a000000000000000000000000000000000000000000000000000000000815260040161015090611511565b60405180910390fd5b5f601467ffffffffffffffff81111561017557610174610f25565b5b6040519080825280601f01601f1916602001820160405280156101a75781602001600182028036833780820191505090505b5090505f5f90505b601481101561029b576101f6836002836101c9919061155c565b60036101d5919061159d565b815181106101e6576101e56115d0565b5b602001015160f81c60f81b61060a565b601061023685600285610209919061155c565b6002610215919061159d565b81518110610226576102256115d0565b5b602001015160f81c60f81b61060a565b6102409190611609565b61024a9190611645565b60f81b8282815181106102605761025f6115d0565b5b60200101907effffffffffffffffffffffffffffffffffffffffffffffffffffffffffffff191690815f1a90535080806001019150506101af565b50806102a6906116dd565b60601c92505050919050565b7f2ae215ce9fde588adfdea92976dc9aa45aa006a0f63942d8f9f21bd4537972a35f1c73ffffffffffffffffffffffffffffffffffffffff166387cea3ae826040518263ffffffff1660e01b815260040161030d9190611752565b6020604051808303815f875af1158015610329573d5f5f3e3d5ffd5b505050506040513d601f19601f8201168201806040525081019061034d91906117a0565b61038c576040517f08c379a000000000000000000000000000000000000000000000000000000000815260040161038390611815565b60405180910390fd5b50565b610397610dca565b5f5f6103ab846103a690611b3b565b610844565b90506103d381604001516040518060800160405280604981526020016123b060499139610b99565b610412576040517f08c379a000000000000000000000000000000000000000000000000000000000815260040161040990611b97565b60405180910390fd5b610454815f01516040518060400160405280601081526020017f617274757240766c617965722e78797a00000000000000000000000000000000815250610b99565b610493576040517f08c379a000000000000000000000000000000000000000000000000000000000815260040161048a90611bff565b60405180910390fd5b61049b610515565b6002825f01516040516020016104b19190611c6f565b6040516020818303038152906040526040516104cd9190611cbf565b602060405180830381855afa1580156104e8573d5f5f3e3d5ffd5b5050506040513d601f19601f8201168201806040525081019061050b9190611cff565b9250925050915091565b61051d610dca565b610525610bb3565b905090565b7f2ae215ce9fde588adfdea92976dc9aa45aa006a0f63942d8f9f21bd4537972a35f1c73ffffffffffffffffffffffffffffffffffffffff1663ffbc563883836040518363ffffffff1660e01b8152600401610587929190611d2a565b6020604051808303815f875af11580156105a3573d5f5f3e3d5ffd5b505050506040513d601f19601f820116820180604052508101906105c791906117a0565b610606576040517f08c379a00000000000000000000000000000000000000000000000000000000081526004016105fd90611815565b60405180910390fd5b5050565b5f5f8260f81c90507f300000000000000000000000000000000000000000000000000000000000000060f81c60ff168160ff161015801561067457507f390000000000000000000000000000000000000000000000000000000000000060f81c60ff168160ff1611155b156106b0577f300000000000000000000000000000000000000000000000000000000000000060f81c816106a89190611d51565b91505061083f565b7f610000000000000000000000000000000000000000000000000000000000000060f81c60ff168160ff161015801561071257507f660000000000000000000000000000000000000000000000000000000000000060f81c60ff168160ff1611155b1561075a577f610000000000000000000000000000000000000000000000000000000000000060f81c81600a6107489190611645565b6107529190611d51565b91505061083f565b7f410000000000000000000000000000000000000000000000000000000000000060f81c60ff168160ff16101580156107bc57507f460000000000000000000000000000000000000000000000000000000000000060f81c60ff168160ff1611155b15610804577f410000000000000000000000000000000000000000000000000000000000000060f81c81600a6107f29190611645565b6107fc9190611d51565b91505061083f565b6040517f08c379a000000000000000000000000000000000000000000000000000000000815260040161083690611dcf565b60405180910390fd5b919050565b61084c610dfc565b4282604001515f015167ffffffffffffffff161161089f576040517f08c379a000000000000000000000000000000000000000000000000000000000815260040161089690611e5d565b60405180910390fd5b6108a7610bca565b15610924577fc16646301c7615357b8f8ee125956b0e5fbf972fa2a0c26feb1f1ae75d04103f5f1b826040015160400151805190602001201461091f576040517f08c379a000000000000000000000000000000000000000000000000000000000815260040161091690611ec5565b60405180910390fd5b610ac4565b61092c610be7565b156109fc57610939610c4f565b73ffffffffffffffffffffffffffffffffffffffff166381e4c9a38360400151604001516040518263ffffffff1660e01b81526004016109799190611f2b565b602060405180830381865afa158015610994573d5f5f3e3d5ffd5b505050506040513d601f19601f820116820180604052508101906109b891906117a0565b6109f7576040517f08c379a00000000000000000000000000000000000000000000000000000000081526004016109ee90611f95565b60405180910390fd5b610ac3565b610a04610c6a565b73ffffffffffffffffffffffffffffffffffffffff166381e4c9a38360400151604001516040518263ffffffff1660e01b8152600401610a449190611f2b565b602060405180830381865afa158015610a5f573d5f5f3e3d5ffd5b505050506040513d601f19601f82011682018060405250810190610a8391906117a0565b610ac2576040517f08c379a0000000000000000000000000000000000000000000000000000000008152600401610ab990611f95565b60405180910390fd5b5b5b5f5f600173f4e4fdca9d5d55e64525e314391996a15f7ec600610ae79190611fb3565b73ffffffffffffffffffffffffffffffffffffffff1684604051602001610b0e91906121be565b604051602081830303815290604052604051610b2a9190611cbf565b5f60405180830381855afa9150503d805f8114610b62576040519150601f19603f3d011682016040523d82523d5f602084013e610b67565b606091505b5091509150610b768282610c85565b505f81806020019051810190610b8c9190612331565b9050809350505050919050565b5f8180519060200120838051906020012014905092915050565b610bbb610dca565b610bc3610dca565b8091505090565b5f610bd3610ca9565b80610be25750610be1610cc1565b5b905090565b5f6001461480610bf75750600a46145b80610c025750608946145b80610c0e575061014446145b80610c1a57506101e046145b80610c26575061210546145b80610c32575061a4b146145b80610c3e575061a4ba46145b80610c4a575061e70846145b905090565b5f73565dca92902ea0ca597b5e62df0b47886b6b7d4d905090565b5f73c4e4dc291a5c4debe9ff5a3372f3fdd2e42bac86905090565b606082610c9a57610c9582610d86565b610ca2565b819050610ca3565b5b92915050565b5f617a69461480610cbc57506204991946145b905090565b5f5f5f601e73f4e4fdca9d5d55e64525e314391996a15f7ec600610ce59190611fb3565b73ffffffffffffffffffffffffffffffffffffffff16604051610d079061239b565b5f60405180830381855afa9150503d805f8114610d3f576040519150601f19603f3d011682016040523d82523d5f602084013e610d44565b606091505b5091509150811580610d5657505f8151145b15610d65575f92505050610d83565b5f81806020019051810190610d7a91906117a0565b90508093505050505b90565b5f81511115610d985780518082602001fd5b6040517f1425ea4200000000000000000000000000000000000000000000000000000000815260040160405180910390fd5b6040518060800160405280610ddd610e24565b81526020015f81526020015f8152602001610df6610e7a565b81525090565b6040518060800160405280606081526020016060815260200160608152602001606081525090565b60405180606001604052805f7bffffffffffffffffffffffffffffffffffffffffffffffffffffffff19168152602001610e5c610ed9565b81526020015f6001811115610e7457610e73611297565b5b81525090565b6040518060a001604052805f73ffffffffffffffffffffffffffffffffffffffff1681526020015f7bffffffffffffffffffffffffffffffffffffffffffffffffffffffff191681526020015f81526020015f81526020015f81525090565b604051806101000160405280600890602082028036833780820191505090505090565b5f604051905090565b5f5ffd5b5f5ffd5b5f5ffd5b5f5ffd5b5f601f19601f8301169050919050565b7f4e487b71000000000000000000000000000000000000000000000000000000005f52604160045260245ffd5b610f5b82610f15565b810181811067ffffffffffffffff82111715610f7a57610f79610f25565b5b80604052505050565b5f610f8c610efc565b9050610f988282610f52565b919050565b5f67ffffffffffffffff821115610fb757610fb6610f25565b5b610fc082610f15565b9050602081019050919050565b828183375f83830152505050565b5f610fed610fe884610f9d565b610f83565b90508281526020810184848401111561100957611008610f11565b5b611014848285610fcd565b509392505050565b5f82601f8301126110305761102f610f0d565b5b8135611040848260208601610fdb565b91505092915050565b5f6020828403121561105e5761105d610f05565b5b5f82013567ffffffffffffffff81111561107b5761107a610f09565b5b6110878482850161101c565b91505092915050565b5f73ffffffffffffffffffffffffffffffffffffffff82169050919050565b5f6110b982611090565b9050919050565b6110c9816110af565b82525050565b5f6020820190506110e25f8301846110c0565b92915050565b5f819050919050565b6110fa816110e8565b8114611104575f5ffd5b50565b5f81359050611115816110f1565b92915050565b5f602082840312156111305761112f610f05565b5b5f61113d84828501611107565b91505092915050565b5f5ffd5b5f6060828403121561115f5761115e611146565b5b81905092915050565b5f6020828403121561117d5761117c610f05565b5b5f82013567ffffffffffffffff81111561119a57611199610f09565b5b6111a68482850161114a565b91505092915050565b5f7fffffffff0000000000000000000000000000000000000000000000000000000082169050919050565b6111e3816111af565b82525050565b5f60089050919050565b5f81905092915050565b5f819050919050565b5f819050919050565b61121881611206565b82525050565b5f611229838361120f565b60208301905092915050565b5f602082019050919050565b61124a816111e9565b61125481846111f3565b925061125f826111fd565b805f5b8381101561128f578151611276878261121e565b965061128183611235565b925050600181019050611262565b505050505050565b7f4e487b71000000000000000000000000000000000000000000000000000000005f52602160045260245ffd5b600281106112d5576112d4611297565b5b50565b5f8190506112e5826112c4565b919050565b5f6112f4826112d8565b9050919050565b611304816112ea565b82525050565b61014082015f82015161131f5f8501826111da565b5060208201516113326020850182611241565b5060408201516113466101208501826112fb565b50505050565b611355816110e8565b82525050565b611364816110af565b82525050565b60a082015f82015161137e5f85018261135b565b50602082015161139160208501826111da565b5060408201516113a4604085018261134c565b5060608201516113b7606085018261134c565b5060808201516113ca608085018261120f565b50505050565b61022082015f8201516113e55f85018261130a565b5060208201516113f961014085018261120f565b50604082015161140d61016085018261134c565b50606082015161142161018085018261136a565b50505050565b61143081611206565b82525050565b5f6102408201905061144a5f8301856113d0565b611458610220830184611427565b9392505050565b5f610220820190506114735f8301846113d0565b92915050565b5f5f6040838503121561148f5761148e610f05565b5b5f61149c85828601611107565b92505060206114ad85828601611107565b9150509250929050565b5f82825260208201905092915050565b7f496e76616c69642061646472657373206c656e677468000000000000000000005f82015250565b5f6114fb6016836114b7565b9150611506826114c7565b602082019050919050565b5f6020820190508181035f830152611528816114ef565b9050919050565b7f4e487b71000000000000000000000000000000000000000000000000000000005f52601160045260245ffd5b5f611566826110e8565b9150611571836110e8565b925082820261157f816110e8565b915082820484148315176115965761159561152f565b5b5092915050565b5f6115a7826110e8565b91506115b2836110e8565b92508282019050808211156115ca576115c961152f565b5b92915050565b7f4e487b71000000000000000000000000000000000000000000000000000000005f52603260045260245ffd5b5f60ff82169050919050565b5f611613826115fd565b915061161e836115fd565b925082820261162c816115fd565b915080821461163e5761163d61152f565b5b5092915050565b5f61164f826115fd565b915061165a836115fd565b9250828201905060ff8111156116735761167261152f565b5b92915050565b5f81519050919050565b5f819050602082019050919050565b5f7fffffffffffffffffffffffffffffffffffffffff00000000000000000000000082169050919050565b5f6116c88251611692565b80915050919050565b5f82821b905092915050565b5f6116e782611679565b826116f184611683565b90506116fc816116bd565b9250601482101561173c576117377fffffffffffffffffffffffffffffffffffffffff000000000000000000000000836014036008026116d1565b831692505b5050919050565b61174c816110e8565b82525050565b5f6020820190506117655f830184611743565b92915050565b5f8115159050919050565b61177f8161176b565b8114611789575f5ffd5b50565b5f8151905061179a81611776565b92915050565b5f602082840312156117b5576117b4610f05565b5b5f6117c28482850161178c565b91505092915050565b7f4661696c6564206368656174636f646520696e766f636174696f6e00000000005f82015250565b5f6117ff601b836114b7565b915061180a826117cb565b602082019050919050565b5f6020820190508181035f83015261182c816117f3565b9050919050565b5f5ffd5b5f5ffd5b611844816115fd565b811461184e575f5ffd5b50565b5f8135905061185f8161183b565b92915050565b5f67ffffffffffffffff82169050919050565b61188181611865565b811461188b575f5ffd5b50565b5f8135905061189c81611878565b92915050565b5f608082840312156118b7576118b6611833565b5b6118c16080610f83565b90505f82013567ffffffffffffffff8111156118e0576118df611837565b5b6118ec8482850161101c565b5f8301525060206118ff84828501611851565b602083015250604082013567ffffffffffffffff81111561192357611922611837565b5b61192f8482850161101c565b60408301525060606119438482850161188e565b60608301525092915050565b5f67ffffffffffffffff82111561196957611968610f25565b5b61197282610f15565b9050602081019050919050565b5f61199161198c8461194f565b610f83565b9050828152602081018484840111156119ad576119ac610f11565b5b6119b8848285610fcd565b509392505050565b5f82601f8301126119d4576119d3610f0d565b5b81356119e484826020860161197f565b91505092915050565b5f60608284031215611a0257611a01611833565b5b611a0c6060610f83565b90505f611a1b8482850161188e565b5f83015250602082013567ffffffffffffffff811115611a3e57611a3d611837565b5b611a4a848285016119c0565b602083015250604082013567ffffffffffffffff811115611a6e57611a6d611837565b5b611a7a848285016119c0565b60408301525092915050565b5f60608284031215611a9b57611a9a611833565b5b611aa56060610f83565b90505f82013567ffffffffffffffff811115611ac457611ac3611837565b5b611ad08482850161101c565b5f83015250602082013567ffffffffffffffff811115611af357611af2611837565b5b611aff848285016118a2565b602083015250604082013567ffffffffffffffff811115611b2357611b22611837565b5b611b2f848285016119ed565b60408301525092915050565b5f611b463683611a86565b9050919050565b7f696e76616c6964207375626a65637400000000000000000000000000000000005f82015250565b5f611b81600f836114b7565b9150611b8c82611b4d565b602082019050919050565b5f6020820190508181035f830152611bae81611b75565b9050919050565b7f696e76616c696420656d61696c206164647265737300000000000000000000005f82015250565b5f611be96015836114b7565b9150611bf482611bb5565b602082019050919050565b5f6020820190508181035f830152611c1681611bdd565b9050919050565b5f81519050919050565b5f81905092915050565b8281835e5f83830152505050565b5f611c4982611c1d565b611c538185611c27565b9350611c63818560208601611c31565b80840191505092915050565b5f611c7a8284611c3f565b915081905092915050565b5f81905092915050565b5f611c9982611679565b611ca38185611c85565b9350611cb3818560208601611c31565b80840191505092915050565b5f611cca8284611c8f565b915081905092915050565b611cde81611206565b8114611ce8575f5ffd5b50565b5f81519050611cf981611cd5565b92915050565b5f60208284031215611d1457611d13610f05565b5b5f611d2184828501611ceb565b91505092915050565b5f604082019050611d3d5f830185611743565b611d4a6020830184611743565b9392505050565b5f611d5b826115fd565b9150611d66836115fd565b9250828203905060ff811115611d7f57611d7e61152f565b5b92915050565b7f496e76616c6964206865782063686172616374657200000000000000000000005f82015250565b5f611db96015836114b7565b9150611dc482611d85565b602082019050919050565b5f6020820190508181035f830152611de681611dad565b9050919050565b7f456d61696c50726f6f663a206578706972656420444e532076657269666963615f8201527f74696f6e00000000000000000000000000000000000000000000000000000000602082015250565b5f611e476024836114b7565b9150611e5282611ded565b604082019050919050565b5f6020820190508181035f830152611e7481611e3b565b9050919050565b7f4e6f7420612076616c69642056444e532068617264636f646564206b657900005f82015250565b5f611eaf601e836114b7565b9150611eba82611e7b565b602082019050919050565b5f6020820190508181035f830152611edc81611ea3565b9050919050565b5f82825260208201905092915050565b5f611efd82611679565b611f078185611ee3565b9350611f17818560208601611c31565b611f2081610f15565b840191505092915050565b5f6020820190508181035f830152611f438184611ef3565b905092915050565b7f4e6f7420612076616c69642056444e53207075626c6963206b657900000000005f82015250565b5f611f7f601b836114b7565b9150611f8a82611f4b565b602082019050919050565b5f6020820190508181035f830152611fac81611f73565b9050919050565b5f611fbd82611090565b9150611fc883611090565b9250828201905073ffffffffffffffffffffffffffffffffffffffff811115611ff457611ff361152f565b5b92915050565b5f82825260208201905092915050565b5f61201482611c1d565b61201e8185611ffa565b935061202e818560208601611c31565b61203781610f15565b840191505092915050565b61204b816115fd565b82525050565b61205a81611865565b82525050565b5f608083015f8301518482035f86015261207a828261200a565b915050602083015161208f6020860182612042565b50604083015184820360408601526120a7828261200a565b91505060608301516120bc6060860182612051565b508091505092915050565b5f82825260208201905092915050565b5f6120e182611679565b6120eb81856120c7565b93506120fb818560208601611c31565b61210481610f15565b840191505092915050565b5f606083015f8301516121245f860182612051565b506020830151848203602086015261213c82826120d7565b9150506040830151848203604086015261215682826120d7565b9150508091505092915050565b5f606083015f8301518482035f86015261217d828261200a565b915050602083015184820360208601526121978282612060565b915050604083015184820360408601526121b1828261210f565b9150508091505092915050565b5f6020820190508181035f8301526121d68184612163565b905092915050565b5f6121f06121eb84610f9d565b610f83565b90508281526020810184848401111561220c5761220b610f11565b5b612217848285611c31565b509392505050565b5f82601f83011261223357612232610f0d565b5b81516122438482602086016121de565b91505092915050565b5f6080828403121561226157612260611833565b5b61226b6080610f83565b90505f82015167ffffffffffffffff81111561228a57612289611837565b5b6122968482850161221f565b5f83015250602082015167ffffffffffffffff8111156122b9576122b8611837565b5b6122c58482850161221f565b602083015250604082015167ffffffffffffffff8111156122e9576122e8611837565b5b6122f58482850161221f565b604083015250606082015167ffffffffffffffff81111561231957612318611837565b5b6123258482850161221f565b60608301525092915050565b5f6020828403121561234657612345610f05565b5b5f82015167ffffffffffffffff81111561236357612362610f09565b5b61236f8482850161224c565b91505092915050565b50565b5f6123865f83611c85565b915061239182612378565b5f82019050919050565b5f6123a58261237b565b915081905091905056fe4d696e74206d7920646f6d61696e204e465420617420616464726573733a20307866333946643665353161616438384636463463653661423838323732373963666646623932323636a26469706673582212209afcbf73c2359ea4a90e56dff50e285dd7f3f52de180f8b6919be1a91c31e0e464736f6c634300081e0033","linkReferences":{}},"methodIdentifiers":{"main((string,(string,uint8,string,uint64),(uint64,bytes,bytes)))":"ac6981e5","proof()":"faf924cf","setBlock(uint256)":"87cea3ae","setChain(uint256,uint256)":"ffbc5638","stringToAddress(string)":"15706fdf"},"id":65}