{
	"abi": [
		{
			"type": "constructor",
			"inputs": [
				{
					"name": "_prover",
					"type": "address",
					"internalType": "address"
				}
			],
			"stateMutability": "nonpayable"
		},
		{
			"type": "function",
			"name": "_setTestVerifier",
			"inputs": [
				{
					"name": "newVerifier",
					"type": "address",
					"internalType": "contract IProofVerifier"
				}
			],
			"outputs": [],
			"stateMutability": "nonpayable"
		},
		{
			"type": "function",
			"name": "prover",
			"inputs": [],
			"outputs": [
				{
					"name": "",
					"type": "address",
					"internalType": "address"
				}
			],
			"stateMutability": "view"
		},
		{
			"type": "function",
			"name": "takenEmailHashes",
			"inputs": [
				{
					"name": "",
					"type": "bytes32",
					"internalType": "bytes32"
				}
			],
			"outputs": [
				{
					"name": "",
					"type": "bool",
					"internalType": "bool"
				}
			],
			"stateMutability": "view"
		},
		{
			"type": "function",
			"name": "verifier",
			"inputs": [],
			"outputs": [
				{
					"name": "",
					"type": "address",
					"internalType": "contract IProofVerifier"
				}
			],
			"stateMutability": "view"
		},
		{
			"type": "function",
			"name": "verify",
			"inputs": [
				{
					"name": "",
					"type": "tuple",
					"internalType": "struct Proof",
					"components": [
						{
							"name": "seal",
							"type": "tuple",
							"internalType": "struct Seal",
							"components": [
								{
									"name": "verifierSelector",
									"type": "bytes4",
									"internalType": "bytes4"
								},
								{
									"name": "seal",
									"type": "bytes32[8]",
									"internalType": "bytes32[8]"
								},
								{
									"name": "mode",
									"type": "uint8",
									"internalType": "enum ProofMode"
								}
							]
						},
						{
							"name": "callGuestId",
							"type": "bytes32",
							"internalType": "bytes32"
						},
						{
							"name": "length",
							"type": "uint256",
							"internalType": "uint256"
						},
						{
							"name": "callAssumptions",
							"type": "tuple",
							"internalType": "struct CallAssumptions",
							"components": [
								{
									"name": "proverContractAddress",
									"type": "address",
									"internalType": "address"
								},
								{
									"name": "functionSelector",
									"type": "bytes4",
									"internalType": "bytes4"
								},
								{
									"name": "settleChainId",
									"type": "uint256",
									"internalType": "uint256"
								},
								{
									"name": "settleBlockNumber",
									"type": "uint256",
									"internalType": "uint256"
								},
								{
									"name": "settleBlockHash",
									"type": "bytes32",
									"internalType": "bytes32"
								}
							]
						}
					]
				},
				{
					"name": "_emailHash",
					"type": "bytes32",
					"internalType": "bytes32"
				}
			],
			"outputs": [
				{
					"name": "",
					"type": "bool",
					"internalType": "bool"
				}
			],
			"stateMutability": "nonpayable"
		},
		{
			"type": "error",
			"name": "InvalidChainId",
			"inputs": []
		}
	],
	"bytecode": {
		"object": "0x60a060405234801561000f575f5ffd5b506040516165fa3803806165fa83398181016040528101906100319190610559565b61003f6100f760201b60201c565b5f5f6101000a81548173ffffffffffffffffffffffffffffffffffffffff021916908373ffffffffffffffffffffffffffffffffffffffff1602179055503373ffffffffffffffffffffffffffffffffffffffff1660808173ffffffffffffffffffffffffffffffffffffffff16815250508060015f6101000a81548173ffffffffffffffffffffffffffffffffffffffff021916908373ffffffffffffffffffffffffffffffffffffffff16021790555050610774565b5f61010661029360201b60201c565b15610202575f303060405161011a906104e1565b610125929190610593565b604051809103905ff08015801561013e573d5f5f3e3d5ffd5b5090508073ffffffffffffffffffffffffffffffffffffffff166384cf84e17fdcb00648ecc90d8bfe92aa8d51061beb0bcb110d274fc4a517e526574233d36b5f1b6040518263ffffffff1660e01b815260040161019c91906105d2565b5f604051808303815f87803b1580156101b3575f5ffd5b505af11580156101c5573d5f5f3e3d5ffd5b50505050806040516101d6906104ee565b6101e09190610646565b604051809103905ff0801580156101f9573d5f5f3e3d5ffd5b50915050610290565b6102106102bc60201b60201c565b1561022f575f61022461032460201b60201c565b905080915050610290565b61023d61034460201b60201c565b1561025e575f6102516103a860201b60201c565b9250505080915050610290565b6040517f7a47c9a200000000000000000000000000000000000000000000000000000000815260040160405180910390fd5b90565b5f6102a261040460201b60201c565b806102b757506102b661041c60201b60201c565b5b905090565b5f60014614806102cc5750600a46145b806102d75750608946145b806102e3575061014446145b806102ef57506101e046145b806102fb575061210546145b80610307575061a4b146145b80610313575061a4ba46145b8061031f575061e70846145b905090565b5f5f735553cf6ce25e3f80fad2866f6230346159ecd89c90508091505090565b5f62aa36a7461480610357575061012c46145b8061036357506112c146145b8061036f575061e70546145b8061037c57506201388246145b80610389575062014a3446145b80610396575062066eee46145b806103a3575062aa37dc46145b905090565b5f5f5f5f739e30dc3e49c4d47f982902710616dcc4b6ff7bf590505f737e231cfc3e3b549633d5ad61c30f07dd4d408ad390505f738972b6ff413ac04e61e19f07d7f3bd980d0cc3219050828282955095509550505050909192565b5f617a6946148061041757506204991946145b905090565b5f5f5f601e73f4e4fdca9d5d55e64525e314391996a15f7ec600610440919061068c565b73ffffffffffffffffffffffffffffffffffffffff1660405161046290610700565b5f60405180830381855afa9150503d805f811461049a576040519150601f19603f3d011682016040523d82523d5f602084013e61049f565b606091505b50915091508115806104b157505f8151145b156104c0575f925050506104de565b5f818060200190518101906104d59190610749565b90508093505050505b90565b611fd080611f7e83390190565b6126ac80613f4e83390190565b5f5ffd5b5f73ffffffffffffffffffffffffffffffffffffffff82169050919050565b5f610528826104ff565b9050919050565b6105388161051e565b8114610542575f5ffd5b50565b5f815190506105538161052f565b92915050565b5f6020828403121561056e5761056d6104fb565b5b5f61057b84828501610545565b91505092915050565b61058d8161051e565b82525050565b5f6040820190506105a65f830185610584565b6105b36020830184610584565b9392505050565b5f819050919050565b6105cc816105ba565b82525050565b5f6020820190506105e55f8301846105c3565b92915050565b5f819050919050565b5f61060e610609610604846104ff565b6105eb565b6104ff565b9050919050565b5f61061f826105f4565b9050919050565b5f61063082610615565b9050919050565b61064081610626565b82525050565b5f6020820190506106595f830184610637565b92915050565b7f4e487b71000000000000000000000000000000000000000000000000000000005f52601160045260245ffd5b5f610696826104ff565b91506106a1836104ff565b9250828201905073ffffffffffffffffffffffffffffffffffffffff8111156106cd576106cc61065f565b5b92915050565b5f81905092915050565b50565b5f6106eb5f836106d3565b91506106f6826106dd565b5f82019050919050565b5f61070a826106e0565b9150819050919050565b5f8115159050919050565b61072881610714565b8114610732575f5ffd5b50565b5f815190506107438161071f565b92915050565b5f6020828403121561075e5761075d6104fb565b5b5f61076b84828501610735565b91505092915050565b6080516117f261078c5f395f61017901526117f25ff3fe608060405234801561000f575f5ffd5b5060043610610055575f3560e01c80632b7ac3f31461005957806332a8f30f146100775780635889d3ea146100955780639b8b30c8146100c5578063b66327c9146100e1575b5f5ffd5b610061610111565b60405161006e9190610af9565b60405180910390f35b61007f610135565b60405161008c9190610b32565b60405180910390f35b6100af60048036038101906100aa9190610b8b565b61015a565b6040516100bc9190610bd0565b60405180910390f35b6100df60048036038101906100da9190610c24565b610177565b005b6100fb60048036038101906100f69190610c72565b610377565b6040516101089190610bd0565b60405180910390f35b5f5f9054906101000a900473ffffffffffffffffffffffffffffffffffffffff1681565b60015f9054906101000a900473ffffffffffffffffffffffffffffffffffffffff1681565b6002602052805f5260405f205f915054906101000a900460ff1681565b7f000000000000000000000000000000000000000000000000000000000000000073ffffffffffffffffffffffffffffffffffffffff163373ffffffffffffffffffffffffffffffffffffffff1614610205576040517f08c379a00000000000000000000000000000000000000000000000000000000081526004016101fc90610d32565b60405180910390fd5b61020d6103e1565b8061021c575061021b6103fe565b5b61025b576040517f08c379a000000000000000000000000000000000000000000000000000000000815260040161025290610dc0565b60405180910390fd5b5f73ffffffffffffffffffffffffffffffffffffffff168173ffffffffffffffffffffffffffffffffffffffff16633fd66f226040518163ffffffff1660e01b8152600401602060405180830381865afa1580156102bb573d5f5f3e3d5ffd5b505050506040513d601f19601f820116820180604052508101906102df9190610e19565b73ffffffffffffffffffffffffffffffffffffffff1603610335576040517f08c379a000000000000000000000000000000000000000000000000000000000815260040161032c90610eb4565b60405180910390fd5b805f5f6101000a81548173ffffffffffffffffffffffffffffffffffffffff021916908373ffffffffffffffffffffffffffffffffffffffff16021790555050565b5f60015f9054906101000a900473ffffffffffffffffffffffffffffffffffffffff1663ac6981e560e01b6103ac8282610462565b600160025f8681526020019081526020015f205f6101000a81548160ff02191690831515021790555060019250505092915050565b5f6103ea610501565b806103f957506103f8610519565b5b905090565b5f62aa36a7461480610411575061012c46145b8061041d57506112c146145b80610429575061e70546145b8061043657506201388246145b80610443575062014a3446145b80610450575062066eee46145b8061045d575062aa37dc46145b905090565b5f5f61046c6105de565b915091505f5f9054906101000a900473ffffffffffffffffffffffffffffffffffffffff1673ffffffffffffffffffffffffffffffffffffffff1663c4fa74e5838387876040518563ffffffff1660e01b81526004016104cf9493929190611168565b5f6040518083038186803b1580156104e5575f5ffd5b505afa1580156104f7573d5f5f3e3d5ffd5b5050505050505050565b5f617a6946148061051457506204991946145b905090565b5f5f5f601e73f4e4fdca9d5d55e64525e314391996a15f7ec60061053d91906111dc565b73ffffffffffffffffffffffffffffffffffffffff1660405161055f90611250565b5f60405180830381855afa9150503d805f8114610597576040519150601f19603f3d011682016040523d82523d5f602084013e61059c565b606091505b50915091508115806105ae57505f8151145b156105bd575f925050506105db565b5f818060200190518101906105d2919061128e565b90508093505050505b90565b6105e6610975565b5f5f5f3660049080926105fb939291906112c1565b8101906106089190611643565b90505f602080602080602061061d919061166f565b610627919061166f565b610631919061166f565b61063b919061166f565b6020806020610100602061064f919061166f565b610659919061166f565b610663919061166f565b61066d919061166f565b6004610679919061166f565b610683919061166f565b90505f6020806020806020610698919061166f565b6106a2919061166f565b6106ac919061166f565b6106b6919061166f565b60208060208060206106c8919061166f565b6106d2919061166f565b6106dc919061166f565b6106e6919061166f565b602080602061010060206106fa919061166f565b610704919061166f565b61070e919061166f565b610718919061166f565b610722919061166f565b846040015161073191906116a2565b61073b91906116a2565b90505f818361074a919061166f565b90505f5f3660208060206101006020610763919061166f565b61076d919061166f565b610777919061166f565b610781919061166f565b600461078d919061166f565b9060208060208060206107a0919061166f565b6107aa919061166f565b6107b4919061166f565b6107be919061166f565b602080602061010060206107d2919061166f565b6107dc919061166f565b6107e6919061166f565b6107f0919061166f565b60046107fc919061166f565b610806919061166f565b92610813939291906112c1565b8080601f0160208091040260200160405190810160405280939291908181526020018383808284375f81840152601f19601f8201169050808301925050505050505090505f5f368690859261086a939291906112c1565b8080601f0160208091040260200160405190810160405280939291908181526020018383808284375f81840152601f19601f8201169050808301925050505050505090505f826108b861095e565b6040516020016108c891906116d5565b604051602081830303815290604052836040516020016108ea93929190611737565b60405160208183030381529060405290505f60028260405161090c9190611767565b602060405180830381855afa158015610927573d5f5f3e3d5ffd5b5050506040513d601f19601f8201168201806040525081019061094a9190611791565b905087819950995050505050505050509091565b610966610975565b61096e610975565b8091505090565b60405180608001604052806109886109a7565b81526020015f81526020015f81526020016109a16109fd565b81525090565b60405180606001604052805f7bffffffffffffffffffffffffffffffffffffffffffffffffffffffff191681526020016109df610a5c565b81526020015f60018111156109f7576109f6610fb1565b5b81525090565b6040518060a001604052805f73ffffffffffffffffffffffffffffffffffffffff1681526020015f7bffffffffffffffffffffffffffffffffffffffffffffffffffffffff191681526020015f81526020015f81526020015f81525090565b604051806101000160405280600890602082028036833780820191505090505090565b5f73ffffffffffffffffffffffffffffffffffffffff82169050919050565b5f819050919050565b5f610ac1610abc610ab784610a7f565b610a9e565b610a7f565b9050919050565b5f610ad282610aa7565b9050919050565b5f610ae382610ac8565b9050919050565b610af381610ad9565b82525050565b5f602082019050610b0c5f830184610aea565b92915050565b5f610b1c82610a7f565b9050919050565b610b2c81610b12565b82525050565b5f602082019050610b455f830184610b23565b92915050565b5f604051905090565b5f5ffd5b5f819050919050565b610b6a81610b58565b8114610b74575f5ffd5b50565b5f81359050610b8581610b61565b92915050565b5f60208284031215610ba057610b9f610b54565b5b5f610bad84828501610b77565b91505092915050565b5f8115159050919050565b610bca81610bb6565b82525050565b5f602082019050610be35f830184610bc1565b92915050565b5f610bf382610b12565b9050919050565b610c0381610be9565b8114610c0d575f5ffd5b50565b5f81359050610c1e81610bfa565b92915050565b5f60208284031215610c3957610c38610b54565b5b5f610c4684828501610c10565b91505092915050565b5f5ffd5b5f6102208284031215610c6957610c68610c4f565b5b81905092915050565b5f5f6102408385031215610c8957610c88610b54565b5b5f610c9685828601610c53565b925050610220610ca885828601610b77565b9150509250929050565b5f82825260208201905092915050565b7f4f6e6c79206465706c6f7965722063616e206368616e676520766572696669655f8201527f7200000000000000000000000000000000000000000000000000000000000000602082015250565b5f610d1c602183610cb2565b9150610d2782610cc2565b604082019050919050565b5f6020820190508181035f830152610d4981610d10565b9050919050565b7f4368616e67696e6720766572696669657273206973206f6e6c7920616c6c6f775f8201527f6564206f6e206465766e6574206f7220746573746e6574000000000000000000602082015250565b5f610daa603783610cb2565b9150610db582610d50565b604082019050919050565b5f6020820190508181035f830152610dd781610d9e565b9050919050565b5f610de882610b12565b9050919050565b610df881610dde565b8114610e02575f5ffd5b50565b5f81519050610e1381610def565b92915050565b5f60208284031215610e2e57610e2d610b54565b5b5f610e3b84828501610e05565b91505092915050565b7f56657269666965722773207265706f7369746f727920616464726573732069735f8201527f206e6f7420736574000000000000000000000000000000000000000000000000602082015250565b5f610e9e602883610cb2565b9150610ea982610e44565b604082019050919050565b5f6020820190508181035f830152610ecb81610e92565b9050919050565b5f7fffffffff0000000000000000000000000000000000000000000000000000000082169050919050565b610f0681610ed2565b82525050565b5f60089050919050565b5f81905092915050565b5f819050919050565b610f3281610b58565b82525050565b5f610f438383610f29565b60208301905092915050565b5f602082019050919050565b610f6481610f0c565b610f6e8184610f16565b9250610f7982610f20565b805f5b83811015610fa9578151610f908782610f38565b9650610f9b83610f4f565b925050600181019050610f7c565b505050505050565b7f4e487b71000000000000000000000000000000000000000000000000000000005f52602160045260245ffd5b60028110610fef57610fee610fb1565b5b50565b5f819050610fff82610fde565b919050565b5f61100e82610ff2565b9050919050565b61101e81611004565b82525050565b61014082015f8201516110395f850182610efd565b50602082015161104c6020850182610f5b565b506040820151611060610120850182611015565b50505050565b5f819050919050565b61107881611066565b82525050565b61108781610b12565b82525050565b60a082015f8201516110a15f85018261107e565b5060208201516110b46020850182610efd565b5060408201516110c7604085018261106f565b5060608201516110da606085018261106f565b5060808201516110ed6080850182610f29565b50505050565b61022082015f8201516111085f850182611024565b50602082015161111c610140850182610f29565b50604082015161113061016085018261106f565b50606082015161114461018085018261108d565b50505050565b61115381610b58565b82525050565b61116281610ed2565b82525050565b5f6102808201905061117c5f8301876110f3565b61118a61022083018661114a565b611198610240830185610b23565b6111a6610260830184611159565b95945050505050565b7f4e487b71000000000000000000000000000000000000000000000000000000005f52601160045260245ffd5b5f6111e682610a7f565b91506111f183610a7f565b9250828201905073ffffffffffffffffffffffffffffffffffffffff81111561121d5761121c6111af565b5b92915050565b5f81905092915050565b50565b5f61123b5f83611223565b91506112468261122d565b5f82019050919050565b5f61125a82611230565b9150819050919050565b61126d81610bb6565b8114611277575f5ffd5b50565b5f8151905061128881611264565b92915050565b5f602082840312156112a3576112a2610b54565b5b5f6112b08482850161127a565b91505092915050565b5f5ffd5b5f5ffd5b5f5f858511156112d4576112d36112b9565b5b838611156112e5576112e46112bd565b5b6001850283019150848603905094509492505050565b5f5ffd5b5f601f19601f8301169050919050565b7f4e487b71000000000000000000000000000000000000000000000000000000005f52604160045260245ffd5b611345826112ff565b810181811067ffffffffffffffff821117156113645761136361130f565b5b80604052505050565b5f611376610b4b565b9050611382828261133c565b919050565b61139081610ed2565b811461139a575f5ffd5b50565b5f813590506113ab81611387565b92915050565b5f5ffd5b5f67ffffffffffffffff8211156113cf576113ce61130f565b5b602082029050919050565b5f5ffd5b5f6113f06113eb846113b5565b61136d565b9050806020840283018581111561140a576114096113da565b5b835b81811015611433578061141f8882610b77565b84526020840193505060208101905061140c565b5050509392505050565b5f82601f830112611451576114506113b1565b5b600861145e8482856113de565b91505092915050565b60028110611473575f5ffd5b50565b5f8135905061148481611467565b92915050565b5f61014082840312156114a05761149f6112fb565b5b6114aa606061136d565b90505f6114b98482850161139d565b5f8301525060206114cc8482850161143d565b6020830152506101206114e184828501611476565b60408301525092915050565b6114f681611066565b8114611500575f5ffd5b50565b5f81359050611511816114ed565b92915050565b61152081610b12565b811461152a575f5ffd5b50565b5f8135905061153b81611517565b92915050565b5f60a08284031215611556576115556112fb565b5b61156060a061136d565b90505f61156f8482850161152d565b5f8301525060206115828482850161139d565b602083015250604061159684828501611503565b60408301525060606115aa84828501611503565b60608301525060806115be84828501610b77565b60808301525092915050565b5f61022082840312156115e0576115df6112fb565b5b6115ea608061136d565b90505f6115f98482850161148a565b5f8301525061014061160d84828501610b77565b60208301525061016061162284828501611503565b60408301525061018061163784828501611541565b60608301525092915050565b5f610220828403121561165957611658610b54565b5b5f611666848285016115ca565b91505092915050565b5f61167982611066565b915061168483611066565b925082820190508082111561169c5761169b6111af565b5b92915050565b5f6116ac82611066565b91506116b783611066565b92508282039050818111156116cf576116ce6111af565b5b92915050565b5f610220820190506116e95f8301846110f3565b92915050565b5f81519050919050565b8281835e5f83830152505050565b5f611711826116ef565b61171b8185611223565b935061172b8185602086016116f9565b80840191505092915050565b5f6117428286611707565b915061174e8285611707565b915061175a8284611707565b9150819050949350505050565b5f6117728284611707565b915081905092915050565b5f8151905061178b81610b61565b92915050565b5f602082840312156117a6576117a5610b54565b5b5f6117b38482850161177d565b9150509291505056fea2646970667358221220f50cda205bb293bb931c33b60cc1c7a9f712535a5b319954da8bb0599f19b06864736f6c634300081e0033608060405234801561000f575f5ffd5b50604051611fd0380380611fd083398181016040528101906100319190610342565b6100435f5f1b8361007c60201b60201c565b506100747fb19546dff01e856fb3f010c267a7b1c60363cf8a4664e21cc89c26224620214e8261007c60201b60201c565b505050610380565b5f5f61008e84846100c560201b60201c565b905080156100bb576100b98360015f8781526020019081526020015f206101ba60201b90919060201c565b505b8091505092915050565b5f6100d683836101ed60201b60201c565b6101b05760015f5f8581526020019081526020015f205f015f8473ffffffffffffffffffffffffffffffffffffffff1673ffffffffffffffffffffffffffffffffffffffff1681526020019081526020015f205f6101000a81548160ff02191690831515021790555061014d61025060201b60201c565b73ffffffffffffffffffffffffffffffffffffffff168273ffffffffffffffffffffffffffffffffffffffff16847f2f8788117e7eff1d82e926ec794901d17c78024a50270940304540a733656f0d60405160405180910390a4600190506101b4565b5f90505b92915050565b5f6101e5835f018373ffffffffffffffffffffffffffffffffffffffff165f1b61025760201b60201c565b905092915050565b5f5f5f8481526020019081526020015f205f015f8373ffffffffffffffffffffffffffffffffffffffff1673ffffffffffffffffffffffffffffffffffffffff1681526020019081526020015f205f9054906101000a900460ff16905092915050565b5f33905090565b5f61026883836102c460201b60201c565b6102ba57825f0182908060018154018082558091505060019003905f5260205f20015f9091909190915055825f0180549050836001015f8481526020019081526020015f2081905550600190506102be565b5f90505b92915050565b5f5f836001015f8481526020019081526020015f20541415905092915050565b5f5ffd5b5f73ffffffffffffffffffffffffffffffffffffffff82169050919050565b5f610311826102e8565b9050919050565b61032181610307565b811461032b575f5ffd5b50565b5f8151905061033c81610318565b92915050565b5f5f60408385031215610358576103576102e4565b5b5f6103658582860161032e565b92505060206103768582860161032e565b9150509250929050565b611c438061038d5f395ff3fe608060405234801561000f575f5ffd5b5060043610610135575f3560e01c8063853b5d19116100b6578063c5df91b51161007a578063c5df91b51461036b578063ca0d535814610387578063ca15c873146103a3578063d547741f146103d3578063e58378bb146103ef578063f2fde38b1461040d57610135565b8063853b5d19146102b55780639010d07c146102d157806391d1485414610301578063a217fddf14610331578063ada8f9191461034f57610135565b80632f2ff15d116100fd5780632f2ff15d1461021557806336568abe14610231578063755e936f1461024d57806381e4c9a31461026957806384cf84e11461029957610135565b806301ffc9a7146101395780631af6c43114610169578063248a9ca3146101995780632505a3bd146101c95780632ad82eea146101f9575b5f5ffd5b610153600480360381019061014e91906113a4565b610429565b60405161016091906113e9565b60405180910390f35b610183600480360381019061017e9190611435565b6104a2565b60405161019091906113e9565b60405180910390f35b6101b360048036038101906101ae9190611435565b6104c8565b6040516101c0919061146f565b60405180910390f35b6101e360048036038101906101de91906115c4565b6104e4565b6040516101f091906113e9565b60405180910390f35b610213600480360381019061020e91906115c4565b610511565b005b61022f600480360381019061022a9190611665565b610620565b005b61024b60048036038101906102469190611665565b610642565b005b61026760048036038101906102629190611741565b6106bd565b005b610283600480360381019061027e9190611741565b6107ca565b60405161029091906113e9565b60405180910390f35b6102b360048036038101906102ae9190611435565b6107f7565b005b6102cf60048036038101906102ca9190611741565b6108ce565b005b6102eb60048036038101906102e691906117bb565b6109dd565b6040516102f89190611808565b60405180910390f35b61031b60048036038101906103169190611665565b610a09565b60405161032891906113e9565b60405180910390f35b610339610a6c565b604051610346919061146f565b60405180910390f35b61036960048036038101906103649190611821565b610a72565b005b61038560048036038101906103809190611435565b610a8d565b005b6103a1600480360381019061039c91906115c4565b610b62565b005b6103bd60048036038101906103b89190611435565b610c6f565b6040516103ca919061185b565b60405180910390f35b6103ed60048036038101906103e89190611665565b610c90565b005b6103f7610cb2565b604051610404919061146f565b60405180910390f35b61042760048036038101906104229190611821565b610cd6565b005b5f7f5a05180f000000000000000000000000000000000000000000000000000000007bffffffffffffffffffffffffffffffffffffffffffffffffffffffff1916827bffffffffffffffffffffffffffffffffffffffffffffffffffffffff1916148061049b575061049a82610d5b565b5b9050919050565b5f60035f8381526020019081526020015f205f9054906101000a900460ff169050919050565b5f5f5f8381526020019081526020015f20600101549050919050565b5f60045f838051906020012081526020019081526020015f205f9054906101000a900460ff169050919050565b7fb19546dff01e856fb3f010c267a7b1c60363cf8a4664e21cc89c26224620214e61053b81610dd4565b5f8280519060200120905060045f8281526020019081526020015f205f9054906101000a900460ff16156105a4576040517f08c379a000000000000000000000000000000000000000000000000000000000815260040161059b906118ce565b60405180910390fd5b600160045f8381526020019081526020015f205f6101000a81548160ff0219169083151502179055503373ffffffffffffffffffffffffffffffffffffffff167fcbfa55581c230aeb174d969838d927cdd297755dfb967a33134312f1377ee71d84604051610613919061193c565b60405180910390a2505050565b610629826104c8565b61063281610dd4565b61063c8383610de8565b50505050565b61064a610e2b565b73ffffffffffffffffffffffffffffffffffffffff168173ffffffffffffffffffffffffffffffffffffffff16146106ae576040517f6697b23200000000000000000000000000000000000000000000000000000000815260040160405180910390fd5b6106b88282610e32565b505050565b7fb19546dff01e856fb3f010c267a7b1c60363cf8a4664e21cc89c26224620214e6106e781610dd4565b5f8280519060200120905060025f8281526020019081526020015f205f9054906101000a900460ff1661074f576040517f08c379a0000000000000000000000000000000000000000000000000000000008152600401610746906119a6565b60405180910390fd5b5f60025f8381526020019081526020015f205f6101000a81548160ff0219169083151502179055503373ffffffffffffffffffffffffffffffffffffffff167f66e43f8252a3257fe010a4fd6ae50f57624762cc64a6eceadb04b18cfdefac7d846040516107bd9190611a16565b60405180910390a2505050565b5f60025f838051906020012081526020019081526020015f205f9054906101000a900460ff169050919050565b7fb19546dff01e856fb3f010c267a7b1c60363cf8a4664e21cc89c26224620214e61082181610dd4565b61082a826104a2565b1561086a576040517f08c379a000000000000000000000000000000000000000000000000000000000815260040161086190611a80565b60405180910390fd5b600160035f8481526020019081526020015f205f6101000a81548160ff0219169083151502179055507f010120d82c0c66b257c0ea628d405b1d3c2d37bb8dd9141f6c5c12cb0375c572826040516108c2919061146f565b60405180910390a15050565b7fb19546dff01e856fb3f010c267a7b1c60363cf8a4664e21cc89c26224620214e6108f881610dd4565b5f8280519060200120905060025f8281526020019081526020015f205f9054906101000a900460ff1615610961576040517f08c379a0000000000000000000000000000000000000000000000000000000008152600401610958906118ce565b60405180910390fd5b600160025f8381526020019081526020015f205f6101000a81548160ff0219169083151502179055503373ffffffffffffffffffffffffffffffffffffffff167f0a249d4766726d36cb6d6ac22cf998dc9fc02bb4ff9fda73ec1e3061c8a1db09846040516109d09190611a16565b60405180910390a2505050565b5f610a018260015f8681526020019081526020015f20610e7590919063ffffffff16565b905092915050565b5f5f5f8481526020019081526020015f205f015f8373ffffffffffffffffffffffffffffffffffffffff1673ffffffffffffffffffffffffffffffffffffffff1681526020019081526020015f205f9054906101000a900460ff16905092915050565b5f5f1b81565b610a7e5f5f1b82610620565b610a8a5f5f1b33610642565b50565b7fb19546dff01e856fb3f010c267a7b1c60363cf8a4664e21cc89c26224620214e610ab781610dd4565b610ac0826104a2565b610aff576040517f08c379a0000000000000000000000000000000000000000000000000000000008152600401610af690611b0e565b60405180910390fd5b5f60035f8481526020019081526020015f205f6101000a81548160ff0219169083151502179055507f4072861add20da436ef0a8274b90d102aea17b603f972cc8196d51f1a5d5617982604051610b56919061146f565b60405180910390a15050565b7fb19546dff01e856fb3f010c267a7b1c60363cf8a4664e21cc89c26224620214e610b8c81610dd4565b5f8280519060200120905060045f8281526020019081526020015f205f9054906101000a900460ff16610bf4576040517f08c379a0000000000000000000000000000000000000000000000000000000008152600401610beb906119a6565b60405180910390fd5b5f60045f8381526020019081526020015f205f6101000a81548160ff0219169083151502179055503373ffffffffffffffffffffffffffffffffffffffff167f69c40cdda8ad6e074bf320a4a76804a6652eb5231bda91b690dcb98010b2707984604051610c62919061193c565b60405180910390a2505050565b5f610c8960015f8481526020019081526020015f20610e8c565b9050919050565b610c99826104c8565b610ca281610dd4565b610cac8383610e32565b50505050565b7fb19546dff01e856fb3f010c267a7b1c60363cf8a4664e21cc89c26224620214e81565b5f610d017fb19546dff01e856fb3f010c267a7b1c60363cf8a4664e21cc89c26224620214e5f6109dd565b9050610d2d7fb19546dff01e856fb3f010c267a7b1c60363cf8a4664e21cc89c26224620214e82610c90565b610d577fb19546dff01e856fb3f010c267a7b1c60363cf8a4664e21cc89c26224620214e83610620565b5050565b5f7f7965db0b000000000000000000000000000000000000000000000000000000007bffffffffffffffffffffffffffffffffffffffffffffffffffffffff1916827bffffffffffffffffffffffffffffffffffffffffffffffffffffffff19161480610dcd5750610dcc82610e9f565b5b9050919050565b610de581610de0610e2b565b610f08565b50565b5f5f610df48484610f59565b90508015610e2157610e1f8360015f8781526020019081526020015f2061104290919063ffffffff16565b505b8091505092915050565b5f33905090565b5f5f610e3e848461106f565b90508015610e6b57610e698360015f8781526020019081526020015f2061115890919063ffffffff16565b505b8091505092915050565b5f610e82835f0183611185565b5f1c905092915050565b5f610e98825f016111ac565b9050919050565b5f7f01ffc9a7000000000000000000000000000000000000000000000000000000007bffffffffffffffffffffffffffffffffffffffffffffffffffffffff1916827bffffffffffffffffffffffffffffffffffffffffffffffffffffffff1916149050919050565b610f128282610a09565b610f555780826040517fe2517d3f000000000000000000000000000000000000000000000000000000008152600401610f4c929190611b2c565b60405180910390fd5b5050565b5f610f648383610a09565b6110385760015f5f8581526020019081526020015f205f015f8473ffffffffffffffffffffffffffffffffffffffff1673ffffffffffffffffffffffffffffffffffffffff1681526020019081526020015f205f6101000a81548160ff021916908315150217905550610fd5610e2b565b73ffffffffffffffffffffffffffffffffffffffff168273ffffffffffffffffffffffffffffffffffffffff16847f2f8788117e7eff1d82e926ec794901d17c78024a50270940304540a733656f0d60405160405180910390a46001905061103c565b5f90505b92915050565b5f611067835f018373ffffffffffffffffffffffffffffffffffffffff165f1b6111bb565b905092915050565b5f61107a8383610a09565b1561114e575f5f5f8581526020019081526020015f205f015f8473ffffffffffffffffffffffffffffffffffffffff1673ffffffffffffffffffffffffffffffffffffffff1681526020019081526020015f205f6101000a81548160ff0219169083151502179055506110eb610e2b565b73ffffffffffffffffffffffffffffffffffffffff168273ffffffffffffffffffffffffffffffffffffffff16847ff6391f5c32d9c69d2a47ea670b442974b53935d1edc7fd64eb21e047a839171b60405160405180910390a460019050611152565b5f90505b92915050565b5f61117d835f018373ffffffffffffffffffffffffffffffffffffffff165f1b611222565b905092915050565b5f825f01828154811061119b5761119a611b53565b5b905f5260205f200154905092915050565b5f815f01805490509050919050565b5f6111c6838361131e565b61121857825f0182908060018154018082558091505060019003905f5260205f20015f9091909190915055825f0180549050836001015f8481526020019081526020015f20819055506001905061121c565b5f90505b92915050565b5f5f836001015f8481526020019081526020015f205490505f8114611313575f60018261124f9190611bad565b90505f6001865f01805490506112659190611bad565b90508082146112cb575f865f01828154811061128457611283611b53565b5b905f5260205f200154905080875f0184815481106112a5576112a4611b53565b5b905f5260205f20018190555083876001015f8381526020019081526020015f2081905550505b855f018054806112de576112dd611be0565b5b600190038181905f5260205f20015f90559055856001015f8681526020019081526020015f205f905560019350505050611318565b5f9150505b92915050565b5f5f836001015f8481526020019081526020015f20541415905092915050565b5f604051905090565b5f5ffd5b5f5ffd5b5f7fffffffff0000000000000000000000000000000000000000000000000000000082169050919050565b6113838161134f565b811461138d575f5ffd5b50565b5f8135905061139e8161137a565b92915050565b5f602082840312156113b9576113b8611347565b5b5f6113c684828501611390565b91505092915050565b5f8115159050919050565b6113e3816113cf565b82525050565b5f6020820190506113fc5f8301846113da565b92915050565b5f819050919050565b61141481611402565b811461141e575f5ffd5b50565b5f8135905061142f8161140b565b92915050565b5f6020828403121561144a57611449611347565b5b5f61145784828501611421565b91505092915050565b61146981611402565b82525050565b5f6020820190506114825f830184611460565b92915050565b5f5ffd5b5f5ffd5b5f601f19601f8301169050919050565b7f4e487b71000000000000000000000000000000000000000000000000000000005f52604160045260245ffd5b6114d682611490565b810181811067ffffffffffffffff821117156114f5576114f46114a0565b5b80604052505050565b5f61150761133e565b905061151382826114cd565b919050565b5f67ffffffffffffffff821115611532576115316114a0565b5b61153b82611490565b9050602081019050919050565b828183375f83830152505050565b5f61156861156384611518565b6114fe565b9050828152602081018484840111156115845761158361148c565b5b61158f848285611548565b509392505050565b5f82601f8301126115ab576115aa611488565b5b81356115bb848260208601611556565b91505092915050565b5f602082840312156115d9576115d8611347565b5b5f82013567ffffffffffffffff8111156115f6576115f561134b565b5b61160284828501611597565b91505092915050565b5f73ffffffffffffffffffffffffffffffffffffffff82169050919050565b5f6116348261160b565b9050919050565b6116448161162a565b811461164e575f5ffd5b50565b5f8135905061165f8161163b565b92915050565b5f5f6040838503121561167b5761167a611347565b5b5f61168885828601611421565b925050602061169985828601611651565b9150509250929050565b5f67ffffffffffffffff8211156116bd576116bc6114a0565b5b6116c682611490565b9050602081019050919050565b5f6116e56116e0846116a3565b6114fe565b9050828152602081018484840111156117015761170061148c565b5b61170c848285611548565b509392505050565b5f82601f83011261172857611727611488565b5b81356117388482602086016116d3565b91505092915050565b5f6020828403121561175657611755611347565b5b5f82013567ffffffffffffffff8111156117735761177261134b565b5b61177f84828501611714565b91505092915050565b5f819050919050565b61179a81611788565b81146117a4575f5ffd5b50565b5f813590506117b581611791565b92915050565b5f5f604083850312156117d1576117d0611347565b5b5f6117de85828601611421565b92505060206117ef858286016117a7565b9150509250929050565b6118028161162a565b82525050565b5f60208201905061181b5f8301846117f9565b92915050565b5f6020828403121561183657611835611347565b5b5f61184384828501611651565b91505092915050565b61185581611788565b82525050565b5f60208201905061186e5f83018461184c565b92915050565b5f82825260208201905092915050565b7f4b657920697320616c72656164792076616c69640000000000000000000000005f82015250565b5f6118b8601483611874565b91506118c382611884565b602082019050919050565b5f6020820190508181035f8301526118e5816118ac565b9050919050565b5f81519050919050565b8281835e5f83830152505050565b5f61190e826118ec565b6119188185611874565b93506119288185602086016118f6565b61193181611490565b840191505092915050565b5f6020820190508181035f8301526119548184611904565b905092915050565b7f43616e6e6f74207265766f6b6520696e76616c6964206b6579000000000000005f82015250565b5f611990601983611874565b915061199b8261195c565b602082019050919050565b5f6020820190508181035f8301526119bd81611984565b9050919050565b5f81519050919050565b5f82825260208201905092915050565b5f6119e8826119c4565b6119f281856119ce565b9350611a028185602086016118f6565b611a0b81611490565b840191505092915050565b5f6020820190508181035f830152611a2e81846119de565b905092915050565b7f496d616765494420697320616c726561647920737570706f72746564000000005f82015250565b5f611a6a601c83611874565b9150611a7582611a36565b602082019050919050565b5f6020820190508181035f830152611a9781611a5e565b9050919050565b7f43616e6e6f74207265766f6b6520756e737570706f7274656420496d616765495f8201527f4400000000000000000000000000000000000000000000000000000000000000602082015250565b5f611af8602183611874565b9150611b0382611a9e565b604082019050919050565b5f6020820190508181035f830152611b2581611aec565b9050919050565b5f604082019050611b3f5f8301856117f9565b611b4c6020830184611460565b9392505050565b7f4e487b71000000000000000000000000000000000000000000000000000000005f52603260045260245ffd5b7f4e487b71000000000000000000000000000000000000000000000000000000005f52601160045260245ffd5b5f611bb782611788565b9150611bc283611788565b9250828203905081811115611bda57611bd9611b80565b5b92915050565b7f4e487b71000000000000000000000000000000000000000000000000000000005f52603160045260245ffdfea2646970667358221220e0c580d4dd40dc8c403a5e1a037b5aac1e83dc1b0e0a638005edc21f4fe48df064736f6c634300081e003360e060405234801561000f575f5ffd5b506040516126ac3803806126ac8339818101604052810190610031919061022d565b808073ffffffffffffffffffffffffffffffffffffffff1660c08173ffffffffffffffffffffffffffffffffffffffff16815250505061007561014960201b60201c565b156100ac576040517f7a47c9a200000000000000000000000000000000000000000000000000000000815260040160405180910390fd5b63deafbeef60e01b6040516100c0906101b1565b6100ca9190610292565b604051809103905ff0801580156100e3573d5f5f3e3d5ffd5b5073ffffffffffffffffffffffffffffffffffffffff1660a08173ffffffffffffffffffffffffffffffffffffffff168152505060018081111561012a576101296102ab565b5b608081600181111561013f5761013e6102ab565b5b81525050506102d8565b5f60014614806101595750600a46145b806101645750608946145b80610170575061014446145b8061017c57506101e046145b80610188575061210546145b80610194575061a4b146145b806101a0575061a4ba46145b806101ac575061e70846145b905090565b610ffb806116b183390190565b5f5ffd5b5f73ffffffffffffffffffffffffffffffffffffffff82169050919050565b5f6101eb826101c2565b9050919050565b5f6101fc826101e1565b9050919050565b61020c816101f2565b8114610216575f5ffd5b50565b5f8151905061022781610203565b92915050565b5f60208284031215610242576102416101be565b5b5f61024f84828501610219565b91505092915050565b5f7fffffffff0000000000000000000000000000000000000000000000000000000082169050919050565b61028c81610258565b82525050565b5f6020820190506102a55f830184610283565b92915050565b7f4e487b71000000000000000000000000000000000000000000000000000000005f52602160045260245ffd5b60805160a05160c05161139461031d5f395f818161011401528181610240015261053401525f818160ef015261019201525f818161013a015261026401526113945ff3fe608060405234801561000f575f5ffd5b5060043610610055575f3560e01c806308c84e70146100595780633fd66f22146100775780639a44ea8414610095578063c4fa74e5146100b3578063f4cbae94146100cf575b5f5ffd5b6100616100ed565b60405161006e9190610747565b60405180910390f35b61007f610111565b60405161008c9190610780565b60405180910390f35b61009d610138565b6040516100aa919061080c565b60405180910390f35b6100cd60048036038101906100c89190610918565b61015c565b005b6100d761023e565b6040516100e49190610780565b60405180910390f35b7f000000000000000000000000000000000000000000000000000000000000000081565b5f7f0000000000000000000000000000000000000000000000000000000000000000905090565b7f000000000000000000000000000000000000000000000000000000000000000081565b610175848036038101906101709190610c7d565b610262565b610190848036038101906101899190610c7d565b83836102f6565b7f000000000000000000000000000000000000000000000000000000000000000073ffffffffffffffffffffffffffffffffffffffff1663ab750e756101e7865f018036038101906101e29190610ca9565b610612565b866101400135866040518463ffffffff1660e01b815260040161020c93929190610d44565b5f6040518083038186803b158015610222575f5ffd5b505afa158015610234573d5f5f3e3d5ffd5b5050505050505050565b7f000000000000000000000000000000000000000000000000000000000000000081565b7f0000000000000000000000000000000000000000000000000000000000000000600181111561029557610294610799565b5b6102a1825f01516106c0565b60018111156102b3576102b2610799565b5b146102f3576040517f08c379a00000000000000000000000000000000000000000000000000000000081526004016102ea90610dda565b60405180910390fd5b50565b8173ffffffffffffffffffffffffffffffffffffffff1683606001515f015173ffffffffffffffffffffffffffffffffffffffff161461036b576040517f08c379a000000000000000000000000000000000000000000000000000000000815260040161036290610e42565b60405180910390fd5b807bffffffffffffffffffffffffffffffffffffffffffffffffffffffff19168360600151602001517bffffffffffffffffffffffffffffffffffffffffffffffffffffffff1916146103f3576040517f08c379a00000000000000000000000000000000000000000000000000000000081526004016103ea90610eaa565b60405180910390fd5b468360600151604001511461043d576040517f08c379a000000000000000000000000000000000000000000000000000000000815260040161043490610f12565b60405180910390fd5b4383606001516060015110610487576040517f08c379a000000000000000000000000000000000000000000000000000000000815260040161047e90610fa0565b60405180910390fd5b4361010084606001516060015161049e9190610feb565b10156104df576040517f08c379a00000000000000000000000000000000000000000000000000000000081526004016104d69061108e565b60405180910390fd5b8260600151606001514083606001516080015114610532576040517f08c379a0000000000000000000000000000000000000000000000000000000008152600401610529906110f6565b60405180910390fd5b7f000000000000000000000000000000000000000000000000000000000000000073ffffffffffffffffffffffffffffffffffffffff16631af6c43184602001516040518263ffffffff1660e01b815260040161058f9190611114565b602060405180830381865afa1580156105aa573d5f5f3e3d5ffd5b505050506040513d601f19601f820116820180604052508101906105ce9190611162565b61060d576040517f08c379a0000000000000000000000000000000000000000000000000000000008152600401610604906111d7565b60405180910390fd5b505050565b606060018081111561062757610626610799565b5b8260400151600181111561063e5761063d610799565b5b0361068f575f82602001515f6008811061065b5761065a6111f5565b5b60200201519050825f015181604051602001610678929190611262565b6040516020818303038152906040529150506106bb565b815f015182602001516040516020016106a9929190611332565b60405160208183030381529060405290505b919050565b5f81604001519050919050565b5f73ffffffffffffffffffffffffffffffffffffffff82169050919050565b5f819050919050565b5f61070f61070a610705846106cd565b6106ec565b6106cd565b9050919050565b5f610720826106f5565b9050919050565b5f61073182610716565b9050919050565b61074181610727565b82525050565b5f60208201905061075a5f830184610738565b92915050565b5f61076a82610716565b9050919050565b61077a81610760565b82525050565b5f6020820190506107935f830184610771565b92915050565b7f4e487b71000000000000000000000000000000000000000000000000000000005f52602160045260245ffd5b600281106107d7576107d6610799565b5b50565b5f8190506107e7826107c6565b919050565b5f6107f6826107da565b9050919050565b610806816107ec565b82525050565b5f60208201905061081f5f8301846107fd565b92915050565b5f604051905090565b5f5ffd5b5f5ffd5b5f610220828403121561084c5761084b610832565b5b81905092915050565b5f819050919050565b61086781610855565b8114610871575f5ffd5b50565b5f813590506108828161085e565b92915050565b5f610892826106cd565b9050919050565b6108a281610888565b81146108ac575f5ffd5b50565b5f813590506108bd81610899565b92915050565b5f7fffffffff0000000000000000000000000000000000000000000000000000000082169050919050565b6108f7816108c3565b8114610901575f5ffd5b50565b5f81359050610912816108ee565b92915050565b5f5f5f5f61028085870312156109315761093061082e565b5b5f61093e87828801610836565b94505061022061095087828801610874565b935050610240610962878288016108af565b92505061026061097487828801610904565b91505092959194509250565b5f5ffd5b5f601f19601f8301169050919050565b7f4e487b71000000000000000000000000000000000000000000000000000000005f52604160045260245ffd5b6109ca82610984565b810181811067ffffffffffffffff821117156109e9576109e8610994565b5b80604052505050565b5f6109fb610825565b9050610a0782826109c1565b919050565b5f5ffd5b5f67ffffffffffffffff821115610a2a57610a29610994565b5b602082029050919050565b5f5ffd5b5f610a4b610a4684610a10565b6109f2565b90508060208402830185811115610a6557610a64610a35565b5b835b81811015610a8e5780610a7a8882610874565b845260208401935050602081019050610a67565b5050509392505050565b5f82601f830112610aac57610aab610a0c565b5b6008610ab9848285610a39565b91505092915050565b60028110610ace575f5ffd5b50565b5f81359050610adf81610ac2565b92915050565b5f6101408284031215610afb57610afa610980565b5b610b0560606109f2565b90505f610b1484828501610904565b5f830152506020610b2784828501610a98565b602083015250610120610b3c84828501610ad1565b60408301525092915050565b5f819050919050565b610b5a81610b48565b8114610b64575f5ffd5b50565b5f81359050610b7581610b51565b92915050565b5f60a08284031215610b9057610b8f610980565b5b610b9a60a06109f2565b90505f610ba9848285016108af565b5f830152506020610bbc84828501610904565b6020830152506040610bd084828501610b67565b6040830152506060610be484828501610b67565b6060830152506080610bf884828501610874565b60808301525092915050565b5f6102208284031215610c1a57610c19610980565b5b610c2460806109f2565b90505f610c3384828501610ae5565b5f83015250610140610c4784828501610874565b602083015250610160610c5c84828501610b67565b604083015250610180610c7184828501610b7b565b60608301525092915050565b5f6102208284031215610c9357610c9261082e565b5b5f610ca084828501610c04565b91505092915050565b5f6101408284031215610cbf57610cbe61082e565b5b5f610ccc84828501610ae5565b91505092915050565b5f81519050919050565b5f82825260208201905092915050565b8281835e5f83830152505050565b5f610d0782610cd5565b610d118185610cdf565b9350610d21818560208601610cef565b610d2a81610984565b840191505092915050565b610d3e81610855565b82525050565b5f6060820190508181035f830152610d5c8186610cfd565b9050610d6b6020830185610d35565b610d786040830184610d35565b949350505050565b5f82825260208201905092915050565b7f496e76616c69642070726f6f66206d6f646500000000000000000000000000005f82015250565b5f610dc4601283610d80565b9150610dcf82610d90565b602082019050919050565b5f6020820190508181035f830152610df181610db8565b9050919050565b7f496e76616c69642070726f7665720000000000000000000000000000000000005f82015250565b5f610e2c600e83610d80565b9150610e3782610df8565b602082019050919050565b5f6020820190508181035f830152610e5981610e20565b9050919050565b7f496e76616c69642073656c6563746f72000000000000000000000000000000005f82015250565b5f610e94601083610d80565b9150610e9f82610e60565b602082019050919050565b5f6020820190508181035f830152610ec181610e88565b9050919050565b7f496e76616c696420636861696e206964000000000000000000000000000000005f82015250565b5f610efc601083610d80565b9150610f0782610ec8565b602082019050919050565b5f6020820190508181035f830152610f2981610ef0565b9050919050565b7f496e76616c696420626c6f636b206e756d6265723a20626c6f636b2066726f6d5f8201527f2066757475726500000000000000000000000000000000000000000000000000602082015250565b5f610f8a602783610d80565b9150610f9582610f30565b604082019050919050565b5f6020820190508181035f830152610fb781610f7e565b9050919050565b7f4e487b71000000000000000000000000000000000000000000000000000000005f52601160045260245ffd5b5f610ff582610b48565b915061100083610b48565b925082820190508082111561101857611017610fbe565b5b92915050565b7f496e76616c696420626c6f636b206e756d6265723a20626c6f636b20746f6f205f8201527f6f6c640000000000000000000000000000000000000000000000000000000000602082015250565b5f611078602383610d80565b91506110838261101e565b604082019050919050565b5f6020820190508181035f8301526110a58161106c565b9050919050565b7f496e76616c696420626c6f636b206861736800000000000000000000000000005f82015250565b5f6110e0601283610d80565b91506110eb826110ac565b602082019050919050565b5f6020820190508181035f83015261110d816110d4565b9050919050565b5f6020820190506111275f830184610d35565b92915050565b5f8115159050919050565b6111418161112d565b811461114b575f5ffd5b50565b5f8151905061115c81611138565b92915050565b5f602082840312156111775761117661082e565b5b5f6111848482850161114e565b91505092915050565b7f556e737570706f727465642043616c6c477565737449640000000000000000005f82015250565b5f6111c1601783610d80565b91506111cc8261118d565b602082019050919050565b5f6020820190508181035f8301526111ee816111b5565b9050919050565b7f4e487b71000000000000000000000000000000000000000000000000000000005f52603260045260245ffd5b5f819050919050565b61123c611237826108c3565b611222565b82525050565b5f819050919050565b61125c61125782610855565b611242565b82525050565b5f61126d828561122b565b60048201915061127d828461124b565b6020820191508190509392505050565b5f60089050919050565b5f81905092915050565b5f819050919050565b6112b381610855565b82525050565b5f6112c483836112aa565b60208301905092915050565b5f602082019050919050565b6112e58161128d565b6112ef8184611297565b92506112fa826112a1565b805f5b8381101561132a57815161131187826112b9565b965061131c836112d0565b9250506001810190506112fd565b505050505050565b5f61133d828561122b565b60048201915061134d82846112dc565b61010082019150819050939250505056fea2646970667358221220daa8ece0759497fcdd4dd0c86ab75afbeff8790695820bfd0b37162fd9ca9e1964736f6c634300081e003360a060405234801561000f575f5ffd5b50604051610ffb380380610ffb833981810160405281019061003191906100d6565b807bffffffffffffffffffffffffffffffffffffffffffffffffffffffff19166080817bffffffffffffffffffffffffffffffffffffffffffffffffffffffff19168152505050610101565b5f5ffd5b5f7fffffffff0000000000000000000000000000000000000000000000000000000082169050919050565b6100b581610081565b81146100bf575f5ffd5b50565b5f815190506100d0816100ac565b92915050565b5f602082840312156100eb576100ea61007d565b5b5f6100f8848285016100c2565b91505092915050565b608051610ecd61012e5f395f8181610111015281816101670152818161024201526102a50152610ecd5ff3fe608060405234801561000f575f5ffd5b5060043610610055575f3560e01c8063053c238d146100595780631599ead5146100775780633a115bb11461009357806366cf0e4b146100c3578063ab750e75146100f3575b5f5ffd5b61006161010f565b60405161006e91906106d2565b60405180910390f35b610091600480360381019061008c9190610715565b610133565b005b6100ad60048036038101906100a8919061078f565b610152565b6040516100ba9190610873565b60405180910390f35b6100dd60048036038101906100d89190610893565b6101b7565b6040516100ea9190610873565b60405180910390f35b61010d60048036038101906101089190610932565b6101e1565b005b7f000000000000000000000000000000000000000000000000000000000000000081565b61014f81805f019061014591906109af565b8360200135610203565b50565b61015a610621565b60405180604001604052807f000000000000000000000000000000000000000000000000000000000000000084604051602001610198929190610a51565b6040516020818303038152906040528152602001838152509050919050565b6101bf610621565b6101d96101d46101cf858561038d565b61042f565b610152565b905092915050565b6101fd84846101f86101f3868661038d565b61042f565b610203565b50505050565b82825f9060049261021693929190610a84565b906102219190610ad4565b7bffffffffffffffffffffffffffffffffffffffffffffffffffffffff19167f00000000000000000000000000000000000000000000000000000000000000007bffffffffffffffffffffffffffffffffffffffffffffffffffffffff1916146103015782825f9060049261029893929190610a84565b906102a39190610ad4565b7f00000000000000000000000000000000000000000000000000000000000000006040517fb8b38d4c0000000000000000000000000000000000000000000000000000000081526004016102f8929190610b32565b60405180910390fd5b806040516020016103129190610b59565b604051602081830303815290604052805190602001208383600490809261033b93929190610a84565b604051610349929190610baf565b604051809103902014610388576040517f439cc0cd00000000000000000000000000000000000000000000000000000000815260040160405180910390fd5b505050565b61039561063a565b6040518060a001604052808481526020017fa3acc27117418996340b84e5a90f3ef4c49d22c79e44aad822ec9c313e1eb8e25f1b815260200160405180604001604052805f60028111156103ec576103eb610bc7565b5b81526020015f60ff1681525081526020015f5f1b815260200161042460405180604001604052808681526020015f5f1b81525061054c565b815250905092915050565b5f60028060405161043f90610c3e565b602060405180830381855afa15801561045a573d5f5f3e3d5ffd5b5050506040513d601f19601f8201168201806040525081019061047d9190610c66565b8360600151845f015185602001518660800151601888604001515f015160028111156104ac576104ab610bc7565b5b63ffffffff16901b601889604001516020015160ff1663ffffffff16901b6008600461ffff16901b6040516020016104eb989796959493929190610d15565b6040516020818303038152906040526040516105079190610dd6565b602060405180830381855afa158015610522573d5f5f3e3d5ffd5b5050506040513d601f19601f820116820180604052508101906105459190610c66565b9050919050565b5f60028060405161055c90610e36565b602060405180830381855afa158015610577573d5f5f3e3d5ffd5b5050506040513d601f19601f8201168201806040525081019061059a9190610c66565b835f015184602001516008600261ffff16901b6040516020016105c09493929190610e4a565b6040516020818303038152906040526040516105dc9190610dd6565b602060405180830381855afa1580156105f7573d5f5f3e3d5ffd5b5050506040513d601f19601f8201168201806040525081019061061a9190610c66565b9050919050565b6040518060400160405280606081526020015f81525090565b6040518060a001604052805f81526020015f815260200161065961066b565b81526020015f81526020015f81525090565b60405180604001604052805f600281111561068957610688610bc7565b5b81526020015f60ff1681525090565b5f7fffffffff0000000000000000000000000000000000000000000000000000000082169050919050565b6106cc81610698565b82525050565b5f6020820190506106e55f8301846106c3565b92915050565b5f5ffd5b5f5ffd5b5f5ffd5b5f6040828403121561070c5761070b6106f3565b5b81905092915050565b5f6020828403121561072a576107296106eb565b5b5f82013567ffffffffffffffff811115610747576107466106ef565b5b610753848285016106f7565b91505092915050565b5f819050919050565b61076e8161075c565b8114610778575f5ffd5b50565b5f8135905061078981610765565b92915050565b5f602082840312156107a4576107a36106eb565b5b5f6107b18482850161077b565b91505092915050565b5f81519050919050565b5f82825260208201905092915050565b8281835e5f83830152505050565b5f601f19601f8301169050919050565b5f6107fc826107ba565b61080681856107c4565b93506108168185602086016107d4565b61081f816107e2565b840191505092915050565b6108338161075c565b82525050565b5f604083015f8301518482035f86015261085382826107f2565b9150506020830151610868602086018261082a565b508091505092915050565b5f6020820190508181035f83015261088b8184610839565b905092915050565b5f5f604083850312156108a9576108a86106eb565b5b5f6108b68582860161077b565b92505060206108c78582860161077b565b9150509250929050565b5f5ffd5b5f5ffd5b5f5ffd5b5f5f83601f8401126108f2576108f16108d1565b5b8235905067ffffffffffffffff81111561090f5761090e6108d5565b5b60208301915083600182028301111561092b5761092a6108d9565b5b9250929050565b5f5f5f5f6060858703121561094a576109496106eb565b5b5f85013567ffffffffffffffff811115610967576109666106ef565b5b610973878288016108dd565b945094505060206109868782880161077b565b92505060406109978782880161077b565b91505092959194509250565b5f5ffd5b5f5ffd5b5f5ffd5b5f5f833560016020038436030381126109cb576109ca6109a3565b5b80840192508235915067ffffffffffffffff8211156109ed576109ec6109a7565b5b602083019250600182023603831315610a0957610a086109ab565b5b509250929050565b5f819050919050565b610a2b610a2682610698565b610a11565b82525050565b5f819050919050565b610a4b610a468261075c565b610a31565b82525050565b5f610a5c8285610a1a565b600482019150610a6c8284610a3a565b6020820191508190509392505050565b5f5ffd5b5f5ffd5b5f5f85851115610a9757610a96610a7c565b5b83861115610aa857610aa7610a80565b5b6001850283019150848603905094509492505050565b5f82905092915050565b5f82821b905092915050565b5f610adf8383610abe565b82610aea8135610698565b92506004821015610b2a57610b257fffffffff0000000000000000000000000000000000000000000000000000000083600403600802610ac8565b831692505b505092915050565b5f604082019050610b455f8301856106c3565b610b5260208301846106c3565b9392505050565b5f610b648284610a3a565b60208201915081905092915050565b5f81905092915050565b828183375f83830152505050565b5f610b968385610b73565b9350610ba3838584610b7d565b82840190509392505050565b5f610bbb828486610b8b565b91508190509392505050565b7f4e487b71000000000000000000000000000000000000000000000000000000005f52602160045260245ffd5b7f72697363302e52656365697074436c61696d00000000000000000000000000005f82015250565b5f610c28601283610b73565b9150610c3382610bf4565b601282019050919050565b5f610c4882610c1c565b9150819050919050565b5f81519050610c6081610765565b92915050565b5f60208284031215610c7b57610c7a6106eb565b5b5f610c8884828501610c52565b91505092915050565b5f63ffffffff82169050919050565b5f8160e01b9050919050565b5f610cb682610ca0565b9050919050565b610cce610cc982610c91565b610cac565b82525050565b5f61ffff82169050919050565b5f8160f01b9050919050565b5f610cf782610ce1565b9050919050565b610d0f610d0a82610cd4565b610ced565b82525050565b5f610d20828b610a3a565b602082019150610d30828a610a3a565b602082019150610d408289610a3a565b602082019150610d508288610a3a565b602082019150610d608287610a3a565b602082019150610d708286610cbd565b600482019150610d808285610cbd565b600482019150610d908284610cfe565b6002820191508190509998505050505050505050565b5f610db0826107ba565b610dba8185610b73565b9350610dca8185602086016107d4565b80840191505092915050565b5f610de18284610da6565b915081905092915050565b7f72697363302e4f757470757400000000000000000000000000000000000000005f82015250565b5f610e20600c83610b73565b9150610e2b82610dec565b600c82019050919050565b5f610e4082610e14565b9150819050919050565b5f610e558287610a3a565b602082019150610e658286610a3a565b602082019150610e758285610a3a565b602082019150610e858284610cfe565b6002820191508190509594505050505056fea2646970667358221220e19dc3de5e4633acb4a40fb09c3e46e46a48f1d27e0d8103f66d85a5d1618aaa64736f6c634300081e0033",
		"linkReferences": {}
	},
	"methodIdentifiers": {
		"_setTestVerifier(address)": "9b8b30c8",
		"prover()": "32a8f30f",
		"takenEmailHashes(bytes32)": "5889d3ea",
		"verifier()": "2b7ac3f3",
		"verify(((bytes4,bytes32[8],uint8),bytes32,uint256,(address,bytes4,uint256,uint256,bytes32)),bytes32)": "b66327c9"
	},
	"id": 41
}